{
  "contractName": "GreenNFTFactory",
  "abi": [
    {
      "inputs": [
        {
          "internalType": "contract GreenNFTMarketPlace",
          "name": "_greenNFTMarketPlace",
          "type": "address"
        },
        {
          "internalType": "contract GreenNFTData",
          "name": "_greenNFTData",
          "type": "address"
        },
        {
          "internalType": "contract AllGreenCoin",
          "name": "_allGreenCoin",
          "type": "address"
        }
      ],
      "stateMutability": "nonpayable",
      "type": "constructor"
    },
    {
      "anonymous": false,
      "inputs": [
        {
          "indexed": true,
          "internalType": "address",
          "name": "previousOwner",
          "type": "address"
        },
        {
          "indexed": true,
          "internalType": "address",
          "name": "newOwner",
          "type": "address"
        }
      ],
      "name": "OwnershipTransferred",
      "type": "event"
    },
    {
      "inputs": [],
      "name": "allGreenCoin",
      "outputs": [
        {
          "internalType": "contract AllGreenCoin",
          "name": "",
          "type": "address"
        }
      ],
      "stateMutability": "view",
      "type": "function"
    },
    {
      "inputs": [],
      "name": "greenNFTData",
      "outputs": [
        {
          "internalType": "contract GreenNFTData",
          "name": "",
          "type": "address"
        }
      ],
      "stateMutability": "view",
      "type": "function"
    },
    {
      "inputs": [],
      "name": "greenNFTMarketPlace",
      "outputs": [
        {
          "internalType": "contract GreenNFTMarketPlace",
          "name": "",
          "type": "address"
        }
      ],
      "stateMutability": "view",
      "type": "function"
    },
    {
      "inputs": [
        {
          "internalType": "address",
          "name": "",
          "type": "address"
        }
      ],
      "name": "isAuditor",
      "outputs": [
        {
          "internalType": "bool",
          "name": "",
          "type": "bool"
        }
      ],
      "stateMutability": "view",
      "type": "function"
    },
    {
      "inputs": [],
      "name": "owner",
      "outputs": [
        {
          "internalType": "address",
          "name": "",
          "type": "address"
        }
      ],
      "stateMutability": "view",
      "type": "function"
    },
    {
      "inputs": [],
      "name": "renounceOwnership",
      "outputs": [],
      "stateMutability": "nonpayable",
      "type": "function"
    },
    {
      "inputs": [
        {
          "internalType": "address",
          "name": "newOwner",
          "type": "address"
        }
      ],
      "name": "transferOwnership",
      "outputs": [],
      "stateMutability": "nonpayable",
      "type": "function"
    },
    {
      "inputs": [
        {
          "internalType": "address",
          "name": "auditor",
          "type": "address"
        }
      ],
      "name": "registerAuditor",
      "outputs": [
        {
          "internalType": "bool",
          "name": "",
          "type": "bool"
        }
      ],
      "stateMutability": "nonpayable",
      "type": "function"
    },
    {
      "inputs": [
        {
          "internalType": "string",
          "name": "projectName",
          "type": "string"
        },
        {
          "internalType": "uint256",
          "name": "co2Emissions",
          "type": "uint256"
        }
      ],
      "name": "registerProject",
      "outputs": [
        {
          "internalType": "bool",
          "name": "",
          "type": "bool"
        }
      ],
      "stateMutability": "nonpayable",
      "type": "function"
    },
    {
      "inputs": [
        {
          "internalType": "uint256",
          "name": "projectId",
          "type": "uint256"
        },
        {
          "internalType": "uint256",
          "name": "co2Reductions",
          "type": "uint256"
        },
        {
          "internalType": "uint256",
          "name": "startOfPeriod",
          "type": "uint256"
        },
        {
          "internalType": "uint256",
          "name": "endOfPeriod",
          "type": "uint256"
        },
        {
          "internalType": "string",
          "name": "referenceDocument",
          "type": "string"
        }
      ],
      "name": "claimCO2Reductions",
      "outputs": [
        {
          "internalType": "bool",
          "name": "",
          "type": "bool"
        }
      ],
      "stateMutability": "nonpayable",
      "type": "function"
    },
    {
      "inputs": [
        {
          "internalType": "uint256",
          "name": "claimId",
          "type": "uint256"
        },
        {
          "internalType": "contract GreenNFT",
          "name": "greenNFT",
          "type": "address"
        },
        {
          "internalType": "address",
          "name": "auditor",
          "type": "address"
        },
        {
          "internalType": "uint256",
          "name": "carbonCredits",
          "type": "uint256"
        },
        {
          "internalType": "string",
          "name": "auditedReport",
          "type": "string"
        }
      ],
      "name": "saveGreenNFTData",
      "outputs": [
        {
          "internalType": "bool",
          "name": "",
          "type": "bool"
        }
      ],
      "stateMutability": "nonpayable",
      "type": "function"
    },
    {
      "inputs": [
        {
          "internalType": "uint256",
          "name": "projectId",
          "type": "uint256"
        },
        {
          "internalType": "uint256",
          "name": "claimId",
          "type": "uint256"
        },
        {
          "internalType": "contract GreenNFT",
          "name": "greenNFT",
          "type": "address"
        },
        {
          "internalType": "address",
          "name": "_projectOwner",
          "type": "address"
        },
        {
          "internalType": "address",
          "name": "auditor",
          "type": "address"
        },
        {
          "internalType": "uint256",
          "name": "startOfPeriod",
          "type": "uint256"
        },
        {
          "internalType": "uint256",
          "name": "endOfPeriod",
          "type": "uint256"
        },
        {
          "internalType": "string",
          "name": "auditedReport",
          "type": "string"
        }
      ],
      "name": "_saveGreenNFTMetadata",
      "outputs": [
        {
          "internalType": "bool",
          "name": "",
          "type": "bool"
        }
      ],
      "stateMutability": "nonpayable",
      "type": "function"
    },
    {
      "inputs": [
        {
          "internalType": "uint256",
          "name": "co2Emissions",
          "type": "uint256"
        },
        {
          "internalType": "uint256",
          "name": "co2Reductions",
          "type": "uint256"
        },
        {
          "internalType": "uint256",
          "name": "carbonCredits",
          "type": "uint256"
        }
      ],
      "name": "_saveGreenNFTEmissonData",
      "outputs": [
        {
          "internalType": "bool",
          "name": "",
          "type": "bool"
        }
      ],
      "stateMutability": "nonpayable",
      "type": "function"
    }
  ],
  "bytecode": "0x60806040523480156200001157600080fd5b5060405162001c9a38038062001c9a83398181016040528101906200003791906200035a565b620000576200004b6200018660201b60201c565b6200018e60201b60201c565b82600360006101000a81548173ffffffffffffffffffffffffffffffffffffffff021916908373ffffffffffffffffffffffffffffffffffffffff16021790555081600460006101000a81548173ffffffffffffffffffffffffffffffffffffffff021916908373ffffffffffffffffffffffffffffffffffffffff16021790555080600560006101000a81548173ffffffffffffffffffffffffffffffffffffffff021916908373ffffffffffffffffffffffffffffffffffffffff160217905550600360009054906101000a900473ffffffffffffffffffffffffffffffffffffffff16600160006101000a81548173ffffffffffffffffffffffffffffffffffffffff021916908373ffffffffffffffffffffffffffffffffffffffff160217905550505050620003b6565b600033905090565b60008060009054906101000a900473ffffffffffffffffffffffffffffffffffffffff169050816000806101000a81548173ffffffffffffffffffffffffffffffffffffffff021916908373ffffffffffffffffffffffffffffffffffffffff1602179055508173ffffffffffffffffffffffffffffffffffffffff168173ffffffffffffffffffffffffffffffffffffffff167f8be0079c531659141344cd1fd0a4f28419497f9722a3daafe3b4186f6b6457e060405160405180910390a35050565b600080fd5b600073ffffffffffffffffffffffffffffffffffffffff82169050919050565b6000620002848262000257565b9050919050565b6000620002988262000277565b9050919050565b620002aa816200028b565b8114620002b657600080fd5b50565b600081519050620002ca816200029f565b92915050565b6000620002dd8262000277565b9050919050565b620002ef81620002d0565b8114620002fb57600080fd5b50565b6000815190506200030f81620002e4565b92915050565b6000620003228262000277565b9050919050565b620003348162000315565b81146200034057600080fd5b50565b600081519050620003548162000329565b92915050565b60008060006060848603121562000376576200037562000252565b5b60006200038686828701620002b9565b93505060206200039986828701620002fe565b9250506040620003ac8682870162000343565b9150509250925092565b6118d480620003c66000396000f3fe608060405234801561001057600080fd5b50600436106100cf5760003560e01c80638da5cb5b1161008c578063cef50b4711610066578063cef50b4714610228578063df9a4f5614610258578063ebe3d7da14610288578063f2fde38b146102a6576100cf565b80638da5cb5b146101aa578063957e8859146101c8578063c7470b1b146101f8576100cf565b80631410b909146100d45780631d04b91814610104578063225bfe6b1461012257806349b9055714610140578063566bde7f14610170578063715018a6146101a0575b600080fd5b6100ee60048036038101906100e99190610d95565b6102c2565b6040516100fb9190610e0c565b60405180910390f35b61010c610376565b6040516101199190610ea6565b60405180910390f35b61012a61039c565b6040516101379190610ee2565b60405180910390f35b61015a60048036038101906101559190610f3b565b6103c2565b6040516101679190610e0c565b60405180910390f35b61018a60048036038101906101859190610fa6565b6103e2565b6040516101979190610e0c565b60405180910390f35b6101a8610589565b005b6101b261059d565b6040516101bf919061104c565b60405180910390f35b6101e260048036038101906101dd9190611067565b6105c6565b6040516101ef9190610e0c565b60405180910390f35b610212600480360381019061020d91906110fe565b610799565b60405161021f9190610e0c565b60405180910390f35b610242600480360381019061023d9190611151565b610849565b60405161024f9190610e0c565b60405180910390f35b610272600480360381019061026d9190610f3b565b610908565b60405161027f9190610e0c565b60405180910390f35b610290610a12565b60405161029d9190611244565b60405180910390f35b6102c060048036038101906102bb9190610f3b565b610a38565b005b600080339050600460009054906101000a900473ffffffffffffffffffffffffffffffffffffffff1673ffffffffffffffffffffffffffffffffffffffff166367cc911f8286866040518463ffffffff1660e01b8152600401610327939291906112ed565b6020604051808303816000875af1158015610346573d6000803e3d6000fd5b505050506040513d601f19601f8201168201806040525081019061036a9190611357565b50600191505092915050565b600560009054906101000a900473ffffffffffffffffffffffffffffffffffffffff1681565b600460009054906101000a900473ffffffffffffffffffffffffffffffffffffffff1681565b60026020528060005260406000206000915054906101000a900460ff1681565b600080600460009054906101000a900473ffffffffffffffffffffffffffffffffffffffff1673ffffffffffffffffffffffffffffffffffffffff16635aef2447886040518263ffffffff1660e01b81526004016104409190611384565b600060405180830381865afa15801561045d573d6000803e3d6000fd5b505050506040513d6000823e3d601f19601f8201168201806040525081019061048691906114d6565b90506000816000015190506000826040015190506000836060015190506000846020015190506000600460009054906101000a900473ffffffffffffffffffffffffffffffffffffffff1673ffffffffffffffffffffffffffffffffffffffff1663f0f3f2c8866040518263ffffffff1660e01b81526004016105099190611384565b600060405180830381865afa158015610526573d6000803e3d6000fd5b505050506040513d6000823e3d601f19601f8201168201806040525081019061054f91906115b4565b9050610565858d8d84600001518e89898f610849565b506105758160400151838b610799565b506001965050505050505095945050505050565b610591610abb565b61059b6000610b39565b565b60008060009054906101000a900473ffffffffffffffffffffffffffffffffffffffff16905090565b600080600460009054906101000a900473ffffffffffffffffffffffffffffffffffffffff1673ffffffffffffffffffffffffffffffffffffffff1663f0f3f2c8886040518263ffffffff1660e01b81526004016106249190611384565b600060405180830381865afa158015610641573d6000803e3d6000fd5b505050506040513d6000823e3d601f19601f8201168201806040525081019061066a91906115b4565b90506000816000015190508073ffffffffffffffffffffffffffffffffffffffff163373ffffffffffffffffffffffffffffffffffffffff16146106e3576040517f08c379a00000000000000000000000000000000000000000000000000000000081526004016106da90611649565b60405180910390fd5b600460009054906101000a900473ffffffffffffffffffffffffffffffffffffffff1673ffffffffffffffffffffffffffffffffffffffff1663906ab71b89898989896040518663ffffffff1660e01b8152600401610746959493929190611669565b6020604051808303816000875af1158015610765573d6000803e3d6000fd5b505050506040513d601f19601f820116820180604052508101906107899190611357565b5060019250505095945050505050565b6000600460009054906101000a900473ffffffffffffffffffffffffffffffffffffffff1673ffffffffffffffffffffffffffffffffffffffff1663242f42b48585856040518463ffffffff1660e01b81526004016107fa939291906116c3565b6020604051808303816000875af1158015610819573d6000803e3d6000fd5b505050506040513d601f19601f8201168201806040525081019061083d9190611357565b50600190509392505050565b6000600460009054906101000a900473ffffffffffffffffffffffffffffffffffffffff1673ffffffffffffffffffffffffffffffffffffffff1663e2248fd68a8a8a8a8a8a8a8a6040518963ffffffff1660e01b81526004016108b498979695949392919061171b565b6020604051808303816000875af11580156108d3573d6000803e3d6000fd5b505050506040513d601f19601f820116820180604052508101906108f79190611357565b506001905098975050505050505050565b6000610912610abb565b6001600260008473ffffffffffffffffffffffffffffffffffffffff1673ffffffffffffffffffffffffffffffffffffffff16815260200190815260200160002060006101000a81548160ff021916908315150217905550600460009054906101000a900473ffffffffffffffffffffffffffffffffffffffff1673ffffffffffffffffffffffffffffffffffffffff1663e429cef1836040518263ffffffff1660e01b81526004016109c5919061104c565b6020604051808303816000875af11580156109e4573d6000803e3d6000fd5b505050506040513d601f19601f82011682018060405250810190610a089190611357565b5060019050919050565b600360009054906101000a900473ffffffffffffffffffffffffffffffffffffffff1681565b610a40610abb565b600073ffffffffffffffffffffffffffffffffffffffff168173ffffffffffffffffffffffffffffffffffffffff1603610aaf576040517f08c379a0000000000000000000000000000000000000000000000000000000008152600401610aa690611812565b60405180910390fd5b610ab881610b39565b50565b610ac3610bfd565b73ffffffffffffffffffffffffffffffffffffffff16610ae161059d565b73ffffffffffffffffffffffffffffffffffffffff1614610b37576040517f08c379a0000000000000000000000000000000000000000000000000000000008152600401610b2e9061187e565b60405180910390fd5b565b60008060009054906101000a900473ffffffffffffffffffffffffffffffffffffffff169050816000806101000a81548173ffffffffffffffffffffffffffffffffffffffff021916908373ffffffffffffffffffffffffffffffffffffffff1602179055508173ffffffffffffffffffffffffffffffffffffffff168173ffffffffffffffffffffffffffffffffffffffff167f8be0079c531659141344cd1fd0a4f28419497f9722a3daafe3b4186f6b6457e060405160405180910390a35050565b600033905090565b6000604051905090565b600080fd5b600080fd5b600080fd5b600080fd5b6000601f19601f8301169050919050565b7f4e487b7100000000000000000000000000000000000000000000000000000000600052604160045260246000fd5b610c6c82610c23565b810181811067ffffffffffffffff82111715610c8b57610c8a610c34565b5b80604052505050565b6000610c9e610c05565b9050610caa8282610c63565b919050565b600067ffffffffffffffff821115610cca57610cc9610c34565b5b610cd382610c23565b9050602081019050919050565b82818337600083830152505050565b6000610d02610cfd84610caf565b610c94565b905082815260208101848484011115610d1e57610d1d610c1e565b5b610d29848285610ce0565b509392505050565b600082601f830112610d4657610d45610c19565b5b8135610d56848260208601610cef565b91505092915050565b6000819050919050565b610d7281610d5f565b8114610d7d57600080fd5b50565b600081359050610d8f81610d69565b92915050565b60008060408385031215610dac57610dab610c0f565b5b600083013567ffffffffffffffff811115610dca57610dc9610c14565b5b610dd685828601610d31565b9250506020610de785828601610d80565b9150509250929050565b60008115159050919050565b610e0681610df1565b82525050565b6000602082019050610e216000830184610dfd565b92915050565b600073ffffffffffffffffffffffffffffffffffffffff82169050919050565b6000819050919050565b6000610e6c610e67610e6284610e27565b610e47565b610e27565b9050919050565b6000610e7e82610e51565b9050919050565b6000610e9082610e73565b9050919050565b610ea081610e85565b82525050565b6000602082019050610ebb6000830184610e97565b92915050565b6000610ecc82610e73565b9050919050565b610edc81610ec1565b82525050565b6000602082019050610ef76000830184610ed3565b92915050565b6000610f0882610e27565b9050919050565b610f1881610efd565b8114610f2357600080fd5b50565b600081359050610f3581610f0f565b92915050565b600060208284031215610f5157610f50610c0f565b5b6000610f5f84828501610f26565b91505092915050565b6000610f7382610efd565b9050919050565b610f8381610f68565b8114610f8e57600080fd5b50565b600081359050610fa081610f7a565b92915050565b600080600080600060a08688031215610fc257610fc1610c0f565b5b6000610fd088828901610d80565b9550506020610fe188828901610f91565b9450506040610ff288828901610f26565b935050606061100388828901610d80565b925050608086013567ffffffffffffffff81111561102457611023610c14565b5b61103088828901610d31565b9150509295509295909350565b61104681610efd565b82525050565b6000602082019050611061600083018461103d565b92915050565b600080600080600060a0868803121561108357611082610c0f565b5b600061109188828901610d80565b95505060206110a288828901610d80565b94505060406110b388828901610d80565b93505060606110c488828901610d80565b925050608086013567ffffffffffffffff8111156110e5576110e4610c14565b5b6110f188828901610d31565b9150509295509295909350565b60008060006060848603121561111757611116610c0f565b5b600061112586828701610d80565b935050602061113686828701610d80565b925050604061114786828701610d80565b9150509250925092565b600080600080600080600080610100898b03121561117257611171610c0f565b5b60006111808b828c01610d80565b98505060206111918b828c01610d80565b97505060406111a28b828c01610f91565b96505060606111b38b828c01610f26565b95505060806111c48b828c01610f26565b94505060a06111d58b828c01610d80565b93505060c06111e68b828c01610d80565b92505060e089013567ffffffffffffffff81111561120757611206610c14565b5b6112138b828c01610d31565b9150509295985092959890939650565b600061122e82610e73565b9050919050565b61123e81611223565b82525050565b60006020820190506112596000830184611235565b92915050565b600081519050919050565b600082825260208201905092915050565b60005b8381101561129957808201518184015260208101905061127e565b60008484015250505050565b60006112b08261125f565b6112ba818561126a565b93506112ca81856020860161127b565b6112d381610c23565b840191505092915050565b6112e781610d5f565b82525050565b6000606082019050611302600083018661103d565b818103602083015261131481856112a5565b905061132360408301846112de565b949350505050565b61133481610df1565b811461133f57600080fd5b50565b6000815190506113518161132b565b92915050565b60006020828403121561136d5761136c610c0f565b5b600061137b84828501611342565b91505092915050565b600060208201905061139960008301846112de565b92915050565b600080fd5b600080fd5b6000815190506113b881610d69565b92915050565b60006113d16113cc84610caf565b610c94565b9050828152602081018484840111156113ed576113ec610c1e565b5b6113f884828561127b565b509392505050565b600082601f83011261141557611414610c19565b5b81516114258482602086016113be565b91505092915050565b600060a082840312156114445761144361139f565b5b61144e60a0610c94565b9050600061145e848285016113a9565b6000830152506020611472848285016113a9565b6020830152506040611486848285016113a9565b604083015250606061149a848285016113a9565b606083015250608082015167ffffffffffffffff8111156114be576114bd6113a4565b5b6114ca84828501611400565b60808301525092915050565b6000602082840312156114ec576114eb610c0f565b5b600082015167ffffffffffffffff81111561150a57611509610c14565b5b6115168482850161142e565b91505092915050565b60008151905061152e81610f0f565b92915050565b60006060828403121561154a5761154961139f565b5b6115546060610c94565b905060006115648482850161151f565b600083015250602082015167ffffffffffffffff811115611588576115876113a4565b5b61159484828501611400565b60208301525060406115a8848285016113a9565b60408301525092915050565b6000602082840312156115ca576115c9610c0f565b5b600082015167ffffffffffffffff8111156115e8576115e7610c14565b5b6115f484828501611534565b91505092915050565b7f43616c6c6572206d75737420626520612070726f6a656374206f776e65720000600082015250565b6000611633601e8361126a565b915061163e826115fd565b602082019050919050565b6000602082019050818103600083015261166281611626565b9050919050565b600060a08201905061167e60008301886112de565b61168b60208301876112de565b61169860408301866112de565b6116a560608301856112de565b81810360808301526116b781846112a5565b90509695505050505050565b60006060820190506116d860008301866112de565b6116e560208301856112de565b6116f260408301846112de565b949350505050565b600061170582610e73565b9050919050565b611715816116fa565b82525050565b600061010082019050611731600083018b6112de565b61173e602083018a6112de565b61174b604083018961170c565b611758606083018861103d565b611765608083018761103d565b61177260a08301866112de565b61177f60c08301856112de565b81810360e083015261179181846112a5565b90509998505050505050505050565b7f4f776e61626c653a206e6577206f776e657220697320746865207a65726f206160008201527f6464726573730000000000000000000000000000000000000000000000000000602082015250565b60006117fc60268361126a565b9150611807826117a0565b604082019050919050565b6000602082019050818103600083015261182b816117ef565b9050919050565b7f4f776e61626c653a2063616c6c6572206973206e6f7420746865206f776e6572600082015250565b600061186860208361126a565b915061187382611832565b602082019050919050565b600060208201905081810360008301526118978161185b565b905091905056fea26469706673582212203f3567efcae003ee07e6d767944f25b82219c62ec782821b9ef290d33a64acbb64736f6c63430008130033",
  "immutableReferences": {},
  "source": "// SPDX-License-Identifier: MIT\n\npragma solidity ^0.8.0;\n\npragma experimental ABIEncoderV2;\nimport \"@openzeppelin/contracts/access/Ownable.sol\";\n\n//import { Ownable } from \"@openzeppelin/contracts/access/Ownable.sol\";\n\nimport { SafeMath } from \"@openzeppelin/contracts/utils/math/SafeMath.sol\";\n\nimport { Strings } from \"./libraries/Strings.sol\";\n\nimport { GreenNFT } from \"./GreenNFT.sol\";\nimport { GreenNFTMarketPlace } from \"./GreenNFTMarketPlace.sol\";\nimport { GreenNFTData } from \"./GreenNFTData.sol\";\nimport { AllGreenCoin } from \"./AllGreenCoin.sol\";\n\n\n/**\n * @notice - This is the factory contract for a NFT of green\n */\ncontract GreenNFTFactory is Ownable {\n    using SafeMath for uint256;\n    using Strings for string;\n\n    address GREEN_NFT_MARKETPLACE;\n\n    mapping(address => bool) public isAuditor;\n\n    GreenNFTMarketPlace public greenNFTMarketPlace;\n    GreenNFTData public greenNFTData;\n    AllGreenCoin public allGreenCoin;\n\n    constructor(\n        GreenNFTMarketPlace _greenNFTMarketPlace, \n        GreenNFTData _greenNFTData, \n        AllGreenCoin _allGreenCoin\n    ) public {\n        greenNFTMarketPlace = _greenNFTMarketPlace;\n        greenNFTData = _greenNFTData;\n        allGreenCoin = _allGreenCoin;\n\n        GREEN_NFT_MARKETPLACE = address(greenNFTMarketPlace);\n    }\n\n    /**\n     * @notice - Throws if called by account without auditors\n     */\n    modifier onlyAuditor() {\n        address auditor;\n        \n        address[] memory auditors = greenNFTData.getAuditors();\n        for (uint i=0; i < auditors.length; i++) {\n            auditor = auditors[i];\n        }\n\n        require(isAuditor[msg.sender], \"Caller should be an auditor\");\n        //require(msg.sender == auditor, \"Caller should be the auditor\");\n        _;\n    }\n\n    /**\n     * @notice - Register a auditor \n     \n    function registerAuditor(address auditor) public returns (bool) {\n    //function registerAuditor(address auditor) public onlyOwner returns (bool) {\n        /// [Note]: Caller should be onlyOwner. But it is commentouted temporary.\n        greenNFTData.addAuditor(auditor);\n    }\n\n    */\n    \n    function registerAuditor(address auditor) public onlyOwner returns (bool) {\n        isAuditor[auditor] = true;\n        greenNFTData.addAuditor(auditor);\n\n        return true;\n    }\n\n\n    /**\n     * @notice - Register a project\n     */\n    function registerProject(string memory projectName, uint co2Emissions) public returns (bool) {\n        address projectOwner = msg.sender;\n        greenNFTData.saveProject(projectOwner, projectName, co2Emissions);\n\n        return true;\n    }\n\n    /**\n     * @notice - A project owner claim CO2 reductions\n     */\n    function claimCO2Reductions(uint projectId, uint co2Reductions, uint startOfPeriod, uint endOfPeriod, string memory referenceDocument) public returns (bool) {\n        /// Check whether a caller is a project owner or not\n        GreenNFTData.Project memory project = greenNFTData.getProject(projectId);\n        address _projectOwner = project.projectOwner;\n        require (msg.sender == _projectOwner, \"Caller must be a project owner\");\n        \n        greenNFTData.saveClaim(projectId, co2Reductions, startOfPeriod, endOfPeriod, referenceDocument);\n\n        return true;\n    }\n\n    /**\n     * @notice - An auditor audit a CO2 reduction claim\n     * @notice - Only auditor can audit\n     */\n\n     \n\n   \n\n    \n    /** \n     * @notice - Save a GreenNFT data\n     */\n    function saveGreenNFTData(\n        uint claimId,\n        GreenNFT greenNFT,\n        address auditor,\n        uint carbonCredits,\n        string memory auditedReport\n    ) public returns (bool) {\n        GreenNFTData.Claim memory claim = greenNFTData.getClaim(claimId);\n        uint _projectId = claim.projectId;\n        uint _startOfPeriod = claim.startOfPeriod;\n        uint _endOfPeriod = claim.endOfPeriod;\n        uint _co2Reductions = claim.co2Reductions;\n\n        GreenNFTData.Project memory project = greenNFTData.getProject(_projectId);\n\n        /// [Note]: Use a project instance as it is. (Do not assign another variable in order to avoid \"stack too deep\")\n        _saveGreenNFTMetadata(_projectId, claimId, greenNFT, project.projectOwner, auditor, _startOfPeriod, _endOfPeriod, auditedReport);\n        _saveGreenNFTEmissonData(project.co2Emissions, _co2Reductions, carbonCredits);\n\n        return true;\n    }\n\n    function _saveGreenNFTMetadata(\n        uint projectId,\n        uint claimId,\n        GreenNFT greenNFT,\n        address _projectOwner,\n        address auditor,\n        uint startOfPeriod, \n        uint endOfPeriod,\n        string memory auditedReport\n    ) public returns (bool) {\n        /// Save metadata of a GreenNFT created\n        greenNFTData.saveGreenNFTMetadata(projectId, claimId, greenNFT, _projectOwner, auditor, startOfPeriod, endOfPeriod, auditedReport);\n\n        return true;\n    }\n\n    function _saveGreenNFTEmissonData(\n        // uint startOfPeriod, \n        // uint endOfPeriod,\n        uint co2Emissions, \n        uint co2Reductions, \n        uint carbonCredits\n    ) public returns (bool) {\n        /// Save emission data of a GreenNFT created\n        greenNFTData.saveGreenNFTEmissonData(co2Emissions, co2Reductions, carbonCredits);\n\n        return true;\n    }\n\n\n   \n\n}\n",
  "sourcePath": "/home/tswisse/Documents/surfacelargepro/newfull/contrat/contracts/GreenNFTFactory.sol",
  "compiler": {
    "name": "solc",
    "version": "0.8.19+commit.7dd6d404.Emscripten.clang"
  },
  "schemaVersion": "3.4.15",
  "updatedAt": "2023-11-08T12:38:47.266Z",
  "devdoc": {
    "kind": "dev",
    "methods": {
      "owner()": {
        "details": "Returns the address of the current owner."
      },
      "renounceOwnership()": {
        "details": "Leaves the contract without owner. It will not be possible to call `onlyOwner` functions. Can only be called by the current owner. NOTE: Renouncing ownership will leave the contract without an owner, thereby disabling any functionality that is only available to the owner."
      },
      "transferOwnership(address)": {
        "details": "Transfers ownership of the contract to a new account (`newOwner`). Can only be called by the current owner."
      }
    },
    "version": 1
  },
  "userdoc": {
    "kind": "user",
    "methods": {
      "claimCO2Reductions(uint256,uint256,uint256,uint256,string)": {
        "notice": "- A project owner claim CO2 reductions"
      },
      "registerAuditor(address)": {
        "notice": "- Register a auditor  function registerAuditor(address auditor) public returns (bool) { //function registerAuditor(address auditor) public onlyOwner returns (bool) { /// [Note]: Caller should be onlyOwner. But it is commentouted temporary. greenNFTData.addAuditor(auditor); }"
      },
      "registerProject(string,uint256)": {
        "notice": "- Register a project"
      },
      "saveGreenNFTData(uint256,address,address,uint256,string)": {
        "notice": "- Save a GreenNFT data"
      }
    },
    "notice": "- This is the factory contract for a NFT of green",
    "version": 1
  }
}