{
  "contractName": "GreenNFTDataCommons",
  "abi": [
    {
      "inputs": [
        {
          "internalType": "uint256",
          "name": "",
          "type": "uint256"
        }
      ],
      "name": "claims",
      "outputs": [
        {
          "internalType": "uint256",
          "name": "projectId",
          "type": "uint256"
        },
        {
          "internalType": "uint256",
          "name": "co2Reductions",
          "type": "uint256"
        },
        {
          "internalType": "uint256",
          "name": "startOfPeriod",
          "type": "uint256"
        },
        {
          "internalType": "uint256",
          "name": "endOfPeriod",
          "type": "uint256"
        },
        {
          "internalType": "string",
          "name": "referenceDocument",
          "type": "string"
        }
      ],
      "stateMutability": "view",
      "type": "function"
    },
    {
      "inputs": [
        {
          "internalType": "uint256",
          "name": "",
          "type": "uint256"
        }
      ],
      "name": "greenNFTEmissonDatas",
      "outputs": [
        {
          "internalType": "uint256",
          "name": "co2Emissions",
          "type": "uint256"
        },
        {
          "internalType": "uint256",
          "name": "co2Reductions",
          "type": "uint256"
        },
        {
          "internalType": "uint256",
          "name": "carbonCredits",
          "type": "uint256"
        },
        {
          "internalType": "uint256",
          "name": "buyableCarbonCredits",
          "type": "uint256"
        }
      ],
      "stateMutability": "view",
      "type": "function"
    },
    {
      "inputs": [
        {
          "internalType": "uint256",
          "name": "",
          "type": "uint256"
        }
      ],
      "name": "greenNFTMetadatas",
      "outputs": [
        {
          "internalType": "uint256",
          "name": "projectId",
          "type": "uint256"
        },
        {
          "internalType": "uint256",
          "name": "claimId",
          "type": "uint256"
        },
        {
          "internalType": "contract GreenNFT",
          "name": "greenNFT",
          "type": "address"
        },
        {
          "internalType": "address",
          "name": "projectOwner",
          "type": "address"
        },
        {
          "internalType": "address",
          "name": "auditor",
          "type": "address"
        },
        {
          "internalType": "uint256",
          "name": "timestampOfissuedDate",
          "type": "uint256"
        },
        {
          "internalType": "uint256",
          "name": "startOfPeriod",
          "type": "uint256"
        },
        {
          "internalType": "uint256",
          "name": "endOfPeriod",
          "type": "uint256"
        },
        {
          "internalType": "string",
          "name": "auditedReport",
          "type": "string"
        },
        {
          "internalType": "enum GreenNFTDataCommons.GreenNFTStatus",
          "name": "greenNFTStatus",
          "type": "uint8"
        }
      ],
      "stateMutability": "view",
      "type": "function"
    },
    {
      "inputs": [
        {
          "internalType": "uint256",
          "name": "",
          "type": "uint256"
        }
      ],
      "name": "projects",
      "outputs": [
        {
          "internalType": "address",
          "name": "projectOwner",
          "type": "address"
        },
        {
          "internalType": "string",
          "name": "projectName",
          "type": "string"
        },
        {
          "internalType": "uint256",
          "name": "co2Emissions",
          "type": "uint256"
        }
      ],
      "stateMutability": "view",
      "type": "function"
    }
  ],
  "bytecode": "0x608060405234801561001057600080fd5b506108a0806100206000396000f3fe608060405234801561001057600080fd5b506004361061004c5760003560e01c8063107046bd14610051578063a888c2cd14610083578063df542dac146100b7578063fd6cf5a7146100f0575b600080fd5b61006b600480360381019061006691906104a7565b610123565b60405161007a939291906105b4565b60405180910390f35b61009d600480360381019061009891906104a7565b610205565b6040516100ae9594939291906105f2565b60405180910390f35b6100d160048036038101906100cc91906104a7565b6102d3565b6040516100e79a99989796959493929190610722565b60405180910390f35b61010a600480360381019061010591906104a7565b61042c565b60405161011a94939291906107c5565b60405180910390f35b6000818154811061013357600080fd5b90600052602060002090600302016000915090508060000160009054906101000a900473ffffffffffffffffffffffffffffffffffffffff169080600101805461017c90610839565b80601f01602080910402602001604051908101604052809291908181526020018280546101a890610839565b80156101f55780601f106101ca576101008083540402835291602001916101f5565b820191906000526020600020905b8154815290600101906020018083116101d857829003601f168201915b5050505050908060020154905083565b6001818154811061021557600080fd5b906000526020600020906005020160009150905080600001549080600101549080600201549080600301549080600401805461025090610839565b80601f016020809104026020016040519081016040528092919081815260200182805461027c90610839565b80156102c95780601f1061029e576101008083540402835291602001916102c9565b820191906000526020600020905b8154815290600101906020018083116102ac57829003601f168201915b5050505050905085565b600281815481106102e357600080fd5b90600052602060002090600a02016000915090508060000154908060010154908060020160009054906101000a900473ffffffffffffffffffffffffffffffffffffffff16908060030160009054906101000a900473ffffffffffffffffffffffffffffffffffffffff16908060040160009054906101000a900473ffffffffffffffffffffffffffffffffffffffff169080600501549080600601549080600701549080600801805461039690610839565b80601f01602080910402602001604051908101604052809291908181526020018280546103c290610839565b801561040f5780601f106103e45761010080835404028352916020019161040f565b820191906000526020600020905b8154815290600101906020018083116103f257829003601f168201915b5050505050908060090160009054906101000a900460ff1690508a565b6003818154811061043c57600080fd5b90600052602060002090600402016000915090508060000154908060010154908060020154908060030154905084565b600080fd5b6000819050919050565b61048481610471565b811461048f57600080fd5b50565b6000813590506104a18161047b565b92915050565b6000602082840312156104bd576104bc61046c565b5b60006104cb84828501610492565b91505092915050565b600073ffffffffffffffffffffffffffffffffffffffff82169050919050565b60006104ff826104d4565b9050919050565b61050f816104f4565b82525050565b600081519050919050565b600082825260208201905092915050565b60005b8381101561054f578082015181840152602081019050610534565b60008484015250505050565b6000601f19601f8301169050919050565b600061057782610515565b6105818185610520565b9350610591818560208601610531565b61059a8161055b565b840191505092915050565b6105ae81610471565b82525050565b60006060820190506105c96000830186610506565b81810360208301526105db818561056c565b90506105ea60408301846105a5565b949350505050565b600060a08201905061060760008301886105a5565b61061460208301876105a5565b61062160408301866105a5565b61062e60608301856105a5565b8181036080830152610640818461056c565b90509695505050505050565b6000819050919050565b600061067161066c610667846104d4565b61064c565b6104d4565b9050919050565b600061068382610656565b9050919050565b600061069582610678565b9050919050565b6106a58161068a565b82525050565b7f4e487b7100000000000000000000000000000000000000000000000000000000600052602160045260246000fd5b600381106106eb576106ea6106ab565b5b50565b60008190506106fc826106da565b919050565b600061070c826106ee565b9050919050565b61071c81610701565b82525050565b600061014082019050610738600083018d6105a5565b610745602083018c6105a5565b610752604083018b61069c565b61075f606083018a610506565b61076c6080830189610506565b61077960a08301886105a5565b61078660c08301876105a5565b61079360e08301866105a5565b8181036101008301526107a6818561056c565b90506107b6610120830184610713565b9b9a5050505050505050505050565b60006080820190506107da60008301876105a5565b6107e760208301866105a5565b6107f460408301856105a5565b61080160608301846105a5565b95945050505050565b7f4e487b7100000000000000000000000000000000000000000000000000000000600052602260045260246000fd5b6000600282049050600182168061085157607f821691505b6020821081036108645761086361080a565b5b5091905056fea2646970667358221220fd46dc81d3e004b4143268b91d59af155df4d45571d709bfc589b95c126160e464736f6c63430008130033",
  "immutableReferences": {},
  "source": "// SPDX-License-Identifier: MIT\n\npragma solidity ^0.8.0;\n\nimport { GreenNFT } from \"../GreenNFT.sol\";\n\n\ncontract GreenNFTDataCommons {\n\n    ///---------------------------\n    /// Storages\n    ///---------------------------\n    Project[] public projects;\n\n    Claim[] public claims;\n\n    GreenNFTMetadata[] public greenNFTMetadatas;\n\n    GreenNFTEmissonData[] public greenNFTEmissonDatas;\n\n\n    ///---------------------------\n    /// Objects\n    ///---------------------------\n    enum GreenNFTStatus { Audited, Sale, NotSale }\n\n    struct Project {\n        address projectOwner;\n        string projectName;\n        uint co2Emissions;\n    }\n   \n    /// @notice - CO2 reduction claim from a project\n    struct Claim {\n        uint projectId;            /// This is projectId for the Project struct (Index is projectId - 1)\n        uint co2Reductions;\n        uint startOfPeriod;        /// e.g). 12:00 UTC, Jan 1, 2022\n        uint endOfPeriod;          /// e.g). 12:00 UTC, Dec 31, 2024\n        string referenceDocument;  /// IPFS hash\n    }\n\n    /// @notice - Metadata of a GreenNFT of a project\n    struct GreenNFTMetadata {  /// [Key]: index of array\n        uint projectId;\n        uint claimId;              /// This is claimId for the Claim struct (Index is claimId - 1)\n        GreenNFT greenNFT;\n        address projectOwner;\n        address auditor;\n        uint timestampOfissuedDate;  /// e.g). 15:00 UTC, Sep 12, 2021\n        uint startOfPeriod;          /// e.g). 12:00 UTC, Jan 1, 2022\n        uint endOfPeriod;            /// e.g). 12:00 UTC, Dec 31, 2024\n        string auditedReport;      /// IPFS hash\n        GreenNFTStatus greenNFTStatus;  /// \"Audited\" or \"Sale\" or \"Not Sale\"\n    }\n\n    /// @notice - Emission data of a GreenNFT of a project\n    struct GreenNFTEmissonData {     /// [Key]: index of array\n        uint co2Emissions;\n        uint co2Reductions;\n        uint carbonCredits;          /// CO2 emissions - CO2 reductions\n        uint buyableCarbonCredits;\n    }\n\n\n    ///---------------------------\n    /// Events\n    ///---------------------------\n}\n\n",
  "sourcePath": "/home/tswisse/Documents/surfacelargepro/newfull/contrat/contracts/commons/GreenNFTDataCommons.sol",
  "compiler": {
    "name": "solc",
    "version": "0.8.19+commit.7dd6d404.Emscripten.clang"
  },
  "schemaVersion": "3.4.15",
  "updatedAt": "2023-08-18T18:06:10.852Z",
  "devdoc": {
    "kind": "dev",
    "methods": {},
    "version": 1
  },
  "userdoc": {
    "kind": "user",
    "methods": {
      "projects(uint256)": {
        "notice": "--------------------------- Storages ---------------------------"
      }
    },
    "version": 1
  }
}