{
  "contractName": "GreenNFTData",
  "abi": [
    {
      "inputs": [],
      "stateMutability": "nonpayable",
      "type": "constructor"
    },
    {
      "inputs": [
        {
          "internalType": "uint256",
          "name": "",
          "type": "uint256"
        }
      ],
      "name": "auditors",
      "outputs": [
        {
          "internalType": "address",
          "name": "",
          "type": "address"
        }
      ],
      "stateMutability": "view",
      "type": "function",
      "constant": true
    },
    {
      "inputs": [
        {
          "internalType": "uint256",
          "name": "",
          "type": "uint256"
        }
      ],
      "name": "claims",
      "outputs": [
        {
          "internalType": "uint256",
          "name": "projectId",
          "type": "uint256"
        },
        {
          "internalType": "uint256",
          "name": "co2Reductions",
          "type": "uint256"
        },
        {
          "internalType": "uint256",
          "name": "startOfPeriod",
          "type": "uint256"
        },
        {
          "internalType": "uint256",
          "name": "endOfPeriod",
          "type": "uint256"
        },
        {
          "internalType": "string",
          "name": "referenceDocument",
          "type": "string"
        }
      ],
      "stateMutability": "view",
      "type": "function",
      "constant": true
    },
    {
      "inputs": [
        {
          "internalType": "uint256",
          "name": "",
          "type": "uint256"
        }
      ],
      "name": "greenNFTAddresses",
      "outputs": [
        {
          "internalType": "address",
          "name": "",
          "type": "address"
        }
      ],
      "stateMutability": "view",
      "type": "function",
      "constant": true
    },
    {
      "inputs": [
        {
          "internalType": "uint256",
          "name": "",
          "type": "uint256"
        }
      ],
      "name": "greenNFTEmissonDatas",
      "outputs": [
        {
          "internalType": "uint256",
          "name": "co2Emissions",
          "type": "uint256"
        },
        {
          "internalType": "uint256",
          "name": "co2Reductions",
          "type": "uint256"
        },
        {
          "internalType": "uint256",
          "name": "carbonCredits",
          "type": "uint256"
        },
        {
          "internalType": "uint256",
          "name": "buyableCarbonCredits",
          "type": "uint256"
        }
      ],
      "stateMutability": "view",
      "type": "function",
      "constant": true
    },
    {
      "inputs": [
        {
          "internalType": "uint256",
          "name": "",
          "type": "uint256"
        }
      ],
      "name": "greenNFTMetadatas",
      "outputs": [
        {
          "internalType": "uint256",
          "name": "projectId",
          "type": "uint256"
        },
        {
          "internalType": "uint256",
          "name": "claimId",
          "type": "uint256"
        },
        {
          "internalType": "contract GreenNFT",
          "name": "greenNFT",
          "type": "address"
        },
        {
          "internalType": "address",
          "name": "projectOwner",
          "type": "address"
        },
        {
          "internalType": "address",
          "name": "auditor",
          "type": "address"
        },
        {
          "internalType": "uint256",
          "name": "timestampOfissuedDate",
          "type": "uint256"
        },
        {
          "internalType": "uint256",
          "name": "startOfPeriod",
          "type": "uint256"
        },
        {
          "internalType": "uint256",
          "name": "endOfPeriod",
          "type": "uint256"
        },
        {
          "internalType": "string",
          "name": "auditedReport",
          "type": "string"
        },
        {
          "internalType": "enum GreenNFTDataCommons.GreenNFTStatus",
          "name": "greenNFTStatus",
          "type": "uint8"
        }
      ],
      "stateMutability": "view",
      "type": "function",
      "constant": true
    },
    {
      "inputs": [
        {
          "internalType": "uint256",
          "name": "",
          "type": "uint256"
        }
      ],
      "name": "projects",
      "outputs": [
        {
          "internalType": "address",
          "name": "projectOwner",
          "type": "address"
        },
        {
          "internalType": "string",
          "name": "projectName",
          "type": "string"
        },
        {
          "internalType": "uint256",
          "name": "co2Emissions",
          "type": "uint256"
        }
      ],
      "stateMutability": "view",
      "type": "function",
      "constant": true
    },
    {
      "inputs": [
        {
          "internalType": "address",
          "name": "auditor",
          "type": "address"
        }
      ],
      "name": "addAuditor",
      "outputs": [
        {
          "internalType": "bool",
          "name": "",
          "type": "bool"
        }
      ],
      "stateMutability": "nonpayable",
      "type": "function"
    },
    {
      "inputs": [
        {
          "internalType": "address",
          "name": "_projectOwner",
          "type": "address"
        },
        {
          "internalType": "string",
          "name": "_projectName",
          "type": "string"
        },
        {
          "internalType": "uint256",
          "name": "_co2Emissions",
          "type": "uint256"
        }
      ],
      "name": "saveProject",
      "outputs": [
        {
          "internalType": "bool",
          "name": "",
          "type": "bool"
        }
      ],
      "stateMutability": "nonpayable",
      "type": "function"
    },
    {
      "inputs": [
        {
          "internalType": "uint256",
          "name": "_projectId",
          "type": "uint256"
        },
        {
          "internalType": "uint256",
          "name": "_co2Reductions",
          "type": "uint256"
        },
        {
          "internalType": "uint256",
          "name": "_startOfPeriod",
          "type": "uint256"
        },
        {
          "internalType": "uint256",
          "name": "_endOfPeriod",
          "type": "uint256"
        },
        {
          "internalType": "string",
          "name": "_referenceDocument",
          "type": "string"
        }
      ],
      "name": "saveClaim",
      "outputs": [
        {
          "internalType": "bool",
          "name": "",
          "type": "bool"
        }
      ],
      "stateMutability": "nonpayable",
      "type": "function"
    },
    {
      "inputs": [
        {
          "internalType": "uint256",
          "name": "_projectId",
          "type": "uint256"
        },
        {
          "internalType": "uint256",
          "name": "_claimId",
          "type": "uint256"
        },
        {
          "internalType": "contract GreenNFT",
          "name": "_greenNFT",
          "type": "address"
        },
        {
          "internalType": "address",
          "name": "_projectOwner",
          "type": "address"
        },
        {
          "internalType": "address",
          "name": "_auditor",
          "type": "address"
        },
        {
          "internalType": "uint256",
          "name": "_startOfPeriod",
          "type": "uint256"
        },
        {
          "internalType": "uint256",
          "name": "_endOfPeriod",
          "type": "uint256"
        },
        {
          "internalType": "string",
          "name": "_auditedReport",
          "type": "string"
        }
      ],
      "name": "saveGreenNFTMetadata",
      "outputs": [
        {
          "internalType": "bool",
          "name": "",
          "type": "bool"
        }
      ],
      "stateMutability": "nonpayable",
      "type": "function"
    },
    {
      "inputs": [
        {
          "internalType": "uint256",
          "name": "_co2Emissions",
          "type": "uint256"
        },
        {
          "internalType": "uint256",
          "name": "_co2Reductions",
          "type": "uint256"
        },
        {
          "internalType": "uint256",
          "name": "_carbonCredits",
          "type": "uint256"
        }
      ],
      "name": "saveGreenNFTEmissonData",
      "outputs": [
        {
          "internalType": "bool",
          "name": "",
          "type": "bool"
        }
      ],
      "stateMutability": "nonpayable",
      "type": "function"
    },
    {
      "inputs": [
        {
          "internalType": "contract GreenNFT",
          "name": "_greenNFT",
          "type": "address"
        },
        {
          "internalType": "enum GreenNFTDataCommons.GreenNFTStatus",
          "name": "_newStatus",
          "type": "uint8"
        }
      ],
      "name": "updateStatus",
      "outputs": [
        {
          "internalType": "bool",
          "name": "",
          "type": "bool"
        }
      ],
      "stateMutability": "nonpayable",
      "type": "function"
    },
    {
      "inputs": [
        {
          "internalType": "uint256",
          "name": "projectId",
          "type": "uint256"
        }
      ],
      "name": "getProject",
      "outputs": [
        {
          "components": [
            {
              "internalType": "address",
              "name": "projectOwner",
              "type": "address"
            },
            {
              "internalType": "string",
              "name": "projectName",
              "type": "string"
            },
            {
              "internalType": "uint256",
              "name": "co2Emissions",
              "type": "uint256"
            }
          ],
          "internalType": "struct GreenNFTDataCommons.Project",
          "name": "_projectId",
          "type": "tuple"
        }
      ],
      "stateMutability": "view",
      "type": "function",
      "constant": true
    },
    {
      "inputs": [
        {
          "internalType": "uint256",
          "name": "claimId",
          "type": "uint256"
        }
      ],
      "name": "getClaim",
      "outputs": [
        {
          "components": [
            {
              "internalType": "uint256",
              "name": "projectId",
              "type": "uint256"
            },
            {
              "internalType": "uint256",
              "name": "co2Reductions",
              "type": "uint256"
            },
            {
              "internalType": "uint256",
              "name": "startOfPeriod",
              "type": "uint256"
            },
            {
              "internalType": "uint256",
              "name": "endOfPeriod",
              "type": "uint256"
            },
            {
              "internalType": "string",
              "name": "referenceDocument",
              "type": "string"
            }
          ],
          "internalType": "struct GreenNFTDataCommons.Claim",
          "name": "_claim",
          "type": "tuple"
        }
      ],
      "stateMutability": "view",
      "type": "function",
      "constant": true
    },
    {
      "inputs": [
        {
          "internalType": "uint256",
          "name": "greenNFTMetadataId",
          "type": "uint256"
        }
      ],
      "name": "getGreenNFTMetadata",
      "outputs": [
        {
          "components": [
            {
              "internalType": "uint256",
              "name": "projectId",
              "type": "uint256"
            },
            {
              "internalType": "uint256",
              "name": "claimId",
              "type": "uint256"
            },
            {
              "internalType": "contract GreenNFT",
              "name": "greenNFT",
              "type": "address"
            },
            {
              "internalType": "address",
              "name": "projectOwner",
              "type": "address"
            },
            {
              "internalType": "address",
              "name": "auditor",
              "type": "address"
            },
            {
              "internalType": "uint256",
              "name": "timestampOfissuedDate",
              "type": "uint256"
            },
            {
              "internalType": "uint256",
              "name": "startOfPeriod",
              "type": "uint256"
            },
            {
              "internalType": "uint256",
              "name": "endOfPeriod",
              "type": "uint256"
            },
            {
              "internalType": "string",
              "name": "auditedReport",
              "type": "string"
            },
            {
              "internalType": "enum GreenNFTDataCommons.GreenNFTStatus",
              "name": "greenNFTStatus",
              "type": "uint8"
            }
          ],
          "internalType": "struct GreenNFTDataCommons.GreenNFTMetadata",
          "name": "_greenNFTMetadata",
          "type": "tuple"
        }
      ],
      "stateMutability": "view",
      "type": "function",
      "constant": true
    },
    {
      "inputs": [
        {
          "internalType": "contract GreenNFT",
          "name": "greenNFT",
          "type": "address"
        }
      ],
      "name": "getGreenNFTMetadataIndex",
      "outputs": [
        {
          "internalType": "uint256",
          "name": "_greenNFTMetadataIndex",
          "type": "uint256"
        }
      ],
      "stateMutability": "view",
      "type": "function",
      "constant": true
    },
    {
      "inputs": [
        {
          "internalType": "contract GreenNFT",
          "name": "greenNFT",
          "type": "address"
        }
      ],
      "name": "getGreenNFTMetadataByNFTAddress",
      "outputs": [
        {
          "components": [
            {
              "internalType": "uint256",
              "name": "projectId",
              "type": "uint256"
            },
            {
              "internalType": "uint256",
              "name": "claimId",
              "type": "uint256"
            },
            {
              "internalType": "contract GreenNFT",
              "name": "greenNFT",
              "type": "address"
            },
            {
              "internalType": "address",
              "name": "projectOwner",
              "type": "address"
            },
            {
              "internalType": "address",
              "name": "auditor",
              "type": "address"
            },
            {
              "internalType": "uint256",
              "name": "timestampOfissuedDate",
              "type": "uint256"
            },
            {
              "internalType": "uint256",
              "name": "startOfPeriod",
              "type": "uint256"
            },
            {
              "internalType": "uint256",
              "name": "endOfPeriod",
              "type": "uint256"
            },
            {
              "internalType": "string",
              "name": "auditedReport",
              "type": "string"
            },
            {
              "internalType": "enum GreenNFTDataCommons.GreenNFTStatus",
              "name": "greenNFTStatus",
              "type": "uint8"
            }
          ],
          "internalType": "struct GreenNFTDataCommons.GreenNFTMetadata",
          "name": "_greenNFTMetadata",
          "type": "tuple"
        }
      ],
      "stateMutability": "view",
      "type": "function",
      "constant": true
    },
    {
      "inputs": [
        {
          "internalType": "uint256",
          "name": "greenNFTMetadataId",
          "type": "uint256"
        }
      ],
      "name": "getGreenNFTEmissonData",
      "outputs": [
        {
          "components": [
            {
              "internalType": "uint256",
              "name": "co2Emissions",
              "type": "uint256"
            },
            {
              "internalType": "uint256",
              "name": "co2Reductions",
              "type": "uint256"
            },
            {
              "internalType": "uint256",
              "name": "carbonCredits",
              "type": "uint256"
            },
            {
              "internalType": "uint256",
              "name": "buyableCarbonCredits",
              "type": "uint256"
            }
          ],
          "internalType": "struct GreenNFTDataCommons.GreenNFTEmissonData",
          "name": "_greenNFTEmissonData",
          "type": "tuple"
        }
      ],
      "stateMutability": "view",
      "type": "function",
      "constant": true
    },
    {
      "inputs": [
        {
          "internalType": "contract GreenNFT",
          "name": "greenNFT",
          "type": "address"
        }
      ],
      "name": "getGreenNFTEmissonDataIndex",
      "outputs": [
        {
          "internalType": "uint256",
          "name": "_greenNFTEmissonDataIndex",
          "type": "uint256"
        }
      ],
      "stateMutability": "view",
      "type": "function",
      "constant": true
    },
    {
      "inputs": [
        {
          "internalType": "contract GreenNFT",
          "name": "greenNFT",
          "type": "address"
        }
      ],
      "name": "getGreenNFTEmissonDataByNFTAddress",
      "outputs": [
        {
          "components": [
            {
              "internalType": "uint256",
              "name": "co2Emissions",
              "type": "uint256"
            },
            {
              "internalType": "uint256",
              "name": "co2Reductions",
              "type": "uint256"
            },
            {
              "internalType": "uint256",
              "name": "carbonCredits",
              "type": "uint256"
            },
            {
              "internalType": "uint256",
              "name": "buyableCarbonCredits",
              "type": "uint256"
            }
          ],
          "internalType": "struct GreenNFTDataCommons.GreenNFTEmissonData",
          "name": "_greenNFTEmissonData",
          "type": "tuple"
        }
      ],
      "stateMutability": "view",
      "type": "function",
      "constant": true
    },
    {
      "inputs": [],
      "name": "getGreenNFTMetadatas",
      "outputs": [
        {
          "components": [
            {
              "internalType": "uint256",
              "name": "projectId",
              "type": "uint256"
            },
            {
              "internalType": "uint256",
              "name": "claimId",
              "type": "uint256"
            },
            {
              "internalType": "contract GreenNFT",
              "name": "greenNFT",
              "type": "address"
            },
            {
              "internalType": "address",
              "name": "projectOwner",
              "type": "address"
            },
            {
              "internalType": "address",
              "name": "auditor",
              "type": "address"
            },
            {
              "internalType": "uint256",
              "name": "timestampOfissuedDate",
              "type": "uint256"
            },
            {
              "internalType": "uint256",
              "name": "startOfPeriod",
              "type": "uint256"
            },
            {
              "internalType": "uint256",
              "name": "endOfPeriod",
              "type": "uint256"
            },
            {
              "internalType": "string",
              "name": "auditedReport",
              "type": "string"
            },
            {
              "internalType": "enum GreenNFTDataCommons.GreenNFTStatus",
              "name": "greenNFTStatus",
              "type": "uint8"
            }
          ],
          "internalType": "struct GreenNFTDataCommons.GreenNFTMetadata[]",
          "name": "_greenNFTMetadatas",
          "type": "tuple[]"
        }
      ],
      "stateMutability": "view",
      "type": "function",
      "constant": true
    },
    {
      "inputs": [],
      "name": "getGreenNFTEmissonDatas",
      "outputs": [
        {
          "components": [
            {
              "internalType": "uint256",
              "name": "co2Emissions",
              "type": "uint256"
            },
            {
              "internalType": "uint256",
              "name": "co2Reductions",
              "type": "uint256"
            },
            {
              "internalType": "uint256",
              "name": "carbonCredits",
              "type": "uint256"
            },
            {
              "internalType": "uint256",
              "name": "buyableCarbonCredits",
              "type": "uint256"
            }
          ],
          "internalType": "struct GreenNFTDataCommons.GreenNFTEmissonData[]",
          "name": "_greenNFTEmissonDatas",
          "type": "tuple[]"
        }
      ],
      "stateMutability": "view",
      "type": "function",
      "constant": true
    },
    {
      "inputs": [],
      "name": "getAuditors",
      "outputs": [
        {
          "internalType": "address[]",
          "name": "_auditors",
          "type": "address[]"
        }
      ],
      "stateMutability": "view",
      "type": "function",
      "constant": true
    },
    {
      "inputs": [
        {
          "internalType": "uint256",
          "name": "index",
          "type": "uint256"
        }
      ],
      "name": "getAuditor",
      "outputs": [
        {
          "internalType": "address",
          "name": "_auditor",
          "type": "address"
        }
      ],
      "stateMutability": "view",
      "type": "function",
      "constant": true
    }
  ],
  "bytecode": "0x608060405234801561001057600080fd5b506130ee806100206000396000f3fe608060405234801561001057600080fd5b50600436106101585760003560e01c80638e87e27e116100c3578063dc0daef31161007c578063dc0daef31461048d578063df542dac146104bd578063e2248fd6146104f6578063e429cef114610526578063f0f3f2c814610556578063fd6cf5a71461058657610158565b80638e87e27e1461037b578063906ab71b146103ab57806393f80ff4146103db578063a888c2cd1461040b578063aadf6d4f1461043f578063c44f0b111461046f57610158565b806357de4a6e1161011557806357de4a6e1461027f5780635aef24471461029d57806367cc911f146102cd5780636e941911146102fd578063729b00631461032d57806380b908341461035d57610158565b8063107046bd1461015d57806317471b7d1461018f5780631b8b444c146101bf578063242f42b4146101ef5780633fbd34c91461021f57806344c5bbf81461024f575b600080fd5b61017760048036038101906101729190611e01565b6105b9565b60405161018693929190611f0e565b60405180910390f35b6101a960048036038101906101a49190611f8a565b61069b565b6040516101b69190611fb7565b60405180910390f35b6101d960048036038101906101d49190611e01565b610749565b6040516101e69190611fd2565b60405180910390f35b61020960048036038101906102049190611fed565b610788565b604051610216919061205b565b60405180910390f35b61023960048036038101906102349190611f8a565b610810565b60405161024691906120da565b60405180910390f35b6102696004803603810190610264919061211a565b61088e565b604051610276919061205b565b60405180910390f35b6102876108fa565b6040516102949190612218565b60405180910390f35b6102b760048036038101906102b29190611e01565b610988565b6040516102c491906122fa565b60405180910390f35b6102e760048036038101906102e2919061247d565b610a9d565b6040516102f4919061205b565b60405180910390f35b61031760048036038101906103129190611e01565b610b8d565b6040516103249190611fd2565b60405180910390f35b61034760048036038101906103429190611e01565b610bcc565b60405161035491906120da565b60405180910390f35b610365610c4f565b60405161037291906125f0565b60405180910390f35b61039560048036038101906103909190611f8a565b610cd6565b6040516103a29190611fb7565b60405180910390f35b6103c560048036038101906103c09190612612565b610d84565b6040516103d2919061205b565b60405180910390f35b6103f560048036038101906103f09190611e01565b610e43565b6040516104029190611fd2565b60405180910390f35b61042560048036038101906104209190611e01565b610e8b565b6040516104369594939291906126a9565b60405180910390f35b61045960048036038101906104549190611e01565b610f59565b60405161046691906128b3565b60405180910390f35b6104776111b6565b6040516104849190612a71565b60405180910390f35b6104a760048036038101906104a29190611f8a565b611417565b6040516104b491906128b3565b60405180910390f35b6104d760048036038101906104d29190611e01565b61166f565b6040516104ed9a99989796959493929190612ab1565b60405180910390f35b610510600480360381019061050b9190612b54565b6117c8565b60405161051d919061205b565b60405180910390f35b610540600480360381019061053b9190612c26565b611a72565b60405161054d919061205b565b60405180910390f35b610570600480360381019061056b9190611e01565b611ae0565b60405161057d9190612ca3565b60405180910390f35b6105a0600480360381019061059b9190611e01565b611c2c565b6040516105b09493929190612cc5565b60405180910390f35b600081815481106105c957600080fd5b90600052602060002090600302016000915090508060000160009054906101000a900473ffffffffffffffffffffffffffffffffffffffff169080600101805461061290612d39565b80601f016020809104026020016040519081016040528092919081815260200182805461063e90612d39565b801561068b5780601f106106605761010080835404028352916020019161068b565b820191906000526020600020905b81548152906001019060200180831161066e57829003601f168201915b5050505050908060020154905083565b600080829050600080600090505b60088054905081101561073e578273ffffffffffffffffffffffffffffffffffffffff16600882815481106106e1576106e0612d6a565b5b9060005260206000200160009054906101000a900473ffffffffffffffffffffffffffffffffffffffff1673ffffffffffffffffffffffffffffffffffffffff160361072b578091505b808061073690612dc8565b9150506106a9565b508092505050919050565b6007818154811061075957600080fd5b906000526020600020016000915054906101000a900473ffffffffffffffffffffffffffffffffffffffff1681565b6000806040518060800160405280868152602001858152602001848152602001848152509050600381908060018154018082558091505060019003906000526020600020906004020160009091909190915060008201518160000155602082015181600101556040820151816002015560608201518160030155505060019150509392505050565b610818611c82565b600082905060006108288461069b565b90506000600382815481106108405761083f612d6a565b5b90600052602060002090600402016040518060800160405290816000820154815260200160018201548152602001600282015481526020016003820154815250509050809350505050919050565b60008061089a84610cd6565b90506000600282815481106108b2576108b1612d6a565b5b90600052602060002090600a02019050838160090160006101000a81548160ff021916908360028111156108e9576108e8612762565b5b021790555060019250505092915050565b6060600780548060200260200160405190810160405280929190818152602001828054801561097e57602002820191906000526020600020905b8160009054906101000a900473ffffffffffffffffffffffffffffffffffffffff1673ffffffffffffffffffffffffffffffffffffffff1681526020019060010190808311610934575b5050505050905090565b610990611caa565b60006109a6600184611c6c90919063ffffffff16565b90506000600182815481106109be576109bd612d6a565b5b90600052602060002090600502016040518060a001604052908160008201548152602001600182015481526020016002820154815260200160038201548152602001600482018054610a0f90612d39565b80601f0160208091040260200160405190810160405280929190818152602001828054610a3b90612d39565b8015610a885780601f10610a5d57610100808354040283529160200191610a88565b820191906000526020600020905b815481529060010190602001808311610a6b57829003601f168201915b50505050508152505090508092505050919050565b600060046000815480929190610ab290612dc8565b9190505550600060405180606001604052808673ffffffffffffffffffffffffffffffffffffffff168152602001858152602001848152509050600081908060018154018082558091505060019003906000526020600020906003020160009091909190915060008201518160000160006101000a81548173ffffffffffffffffffffffffffffffffffffffff021916908373ffffffffffffffffffffffffffffffffffffffff1602179055506020820151816001019081610b749190612fb2565b5060408201518160020155505060019150509392505050565b60088181548110610b9d57600080fd5b906000526020600020016000915054906101000a900473ffffffffffffffffffffffffffffffffffffffff1681565b610bd4611c82565b6000610bea600184611c6c90919063ffffffff16565b9050600060038281548110610c0257610c01612d6a565b5b906000526020600020906004020160405180608001604052908160008201548152602001600182015481526020016002820154815260200160038201548152505090508092505050919050565b60606003805480602002602001604051908101604052809291908181526020016000905b82821015610ccd578382906000526020600020906004020160405180608001604052908160008201548152602001600182015481526020016002820154815260200160038201548152505081526020019060010190610c73565b50505050905090565b600080829050600080600090505b600880549050811015610d79578273ffffffffffffffffffffffffffffffffffffffff1660088281548110610d1c57610d1b612d6a565b5b9060005260206000200160009054906101000a900473ffffffffffffffffffffffffffffffffffffffff1673ffffffffffffffffffffffffffffffffffffffff1603610d66578091505b8080610d7190612dc8565b915050610ce4565b508092505050919050565b600060056000815480929190610d9990612dc8565b919050555060006040518060a001604052808881526020018781526020018681526020018581526020018481525090506001819080600181540180825580915050600190039060005260206000209060050201600090919091909150600082015181600001556020820151816001015560408201518160020155606082015181600301556080820151816004019081610e329190612fb2565b505050600191505095945050505050565b600060078281548110610e5957610e58612d6a565b5b9060005260206000200160009054906101000a900473ffffffffffffffffffffffffffffffffffffffff169050919050565b60018181548110610e9b57600080fd5b9060005260206000209060050201600091509050806000015490806001015490806002015490806003015490806004018054610ed690612d39565b80601f0160208091040260200160405190810160405280929190818152602001828054610f0290612d39565b8015610f4f5780601f10610f2457610100808354040283529160200191610f4f565b820191906000526020600020905b815481529060010190602001808311610f3257829003601f168201915b5050505050905085565b610f61611cd9565b6000610f77600184611c6c90919063ffffffff16565b9050600060028281548110610f8f57610f8e612d6a565b5b90600052602060002090600a02016040518061014001604052908160008201548152602001600182015481526020016002820160009054906101000a900473ffffffffffffffffffffffffffffffffffffffff1673ffffffffffffffffffffffffffffffffffffffff1673ffffffffffffffffffffffffffffffffffffffff1681526020016003820160009054906101000a900473ffffffffffffffffffffffffffffffffffffffff1673ffffffffffffffffffffffffffffffffffffffff1673ffffffffffffffffffffffffffffffffffffffff1681526020016004820160009054906101000a900473ffffffffffffffffffffffffffffffffffffffff1673ffffffffffffffffffffffffffffffffffffffff1673ffffffffffffffffffffffffffffffffffffffff1681526020016005820154815260200160068201548152602001600782015481526020016008820180546110ed90612d39565b80601f016020809104026020016040519081016040528092919081815260200182805461111990612d39565b80156111665780601f1061113b57610100808354040283529160200191611166565b820191906000526020600020905b81548152906001019060200180831161114957829003601f168201915b505050505081526020016009820160009054906101000a900460ff16600281111561119457611193612762565b5b60028111156111a6576111a5612762565b5b8152505090508092505050919050565b60606002805480602002602001604051908101604052809291908181526020016000905b8282101561140e57838290600052602060002090600a02016040518061014001604052908160008201548152602001600182015481526020016002820160009054906101000a900473ffffffffffffffffffffffffffffffffffffffff1673ffffffffffffffffffffffffffffffffffffffff1673ffffffffffffffffffffffffffffffffffffffff1681526020016003820160009054906101000a900473ffffffffffffffffffffffffffffffffffffffff1673ffffffffffffffffffffffffffffffffffffffff1673ffffffffffffffffffffffffffffffffffffffff1681526020016004820160009054906101000a900473ffffffffffffffffffffffffffffffffffffffff1673ffffffffffffffffffffffffffffffffffffffff1673ffffffffffffffffffffffffffffffffffffffff16815260200160058201548152602001600682015481526020016007820154815260200160088201805461134290612d39565b80601f016020809104026020016040519081016040528092919081815260200182805461136e90612d39565b80156113bb5780601f10611390576101008083540402835291602001916113bb565b820191906000526020600020905b81548152906001019060200180831161139e57829003601f168201915b505050505081526020016009820160009054906101000a900460ff1660028111156113e9576113e8612762565b5b60028111156113fb576113fa612762565b5b81525050815260200190600101906111da565b50505050905090565b61141f611cd9565b6000829050600061142f84610cd6565b905060006002828154811061144757611446612d6a565b5b90600052602060002090600a02016040518061014001604052908160008201548152602001600182015481526020016002820160009054906101000a900473ffffffffffffffffffffffffffffffffffffffff1673ffffffffffffffffffffffffffffffffffffffff1673ffffffffffffffffffffffffffffffffffffffff1681526020016003820160009054906101000a900473ffffffffffffffffffffffffffffffffffffffff1673ffffffffffffffffffffffffffffffffffffffff1673ffffffffffffffffffffffffffffffffffffffff1681526020016004820160009054906101000a900473ffffffffffffffffffffffffffffffffffffffff1673ffffffffffffffffffffffffffffffffffffffff1673ffffffffffffffffffffffffffffffffffffffff1681526020016005820154815260200160068201548152602001600782015481526020016008820180546115a590612d39565b80601f01602080910402602001604051908101604052809291908181526020018280546115d190612d39565b801561161e5780601f106115f35761010080835404028352916020019161161e565b820191906000526020600020905b81548152906001019060200180831161160157829003601f168201915b505050505081526020016009820160009054906101000a900460ff16600281111561164c5761164b612762565b5b600281111561165e5761165d612762565b5b815250509050809350505050919050565b6002818154811061167f57600080fd5b90600052602060002090600a02016000915090508060000154908060010154908060020160009054906101000a900473ffffffffffffffffffffffffffffffffffffffff16908060030160009054906101000a900473ffffffffffffffffffffffffffffffffffffffff16908060040160009054906101000a900473ffffffffffffffffffffffffffffffffffffffff169080600501549080600601549080600701549080600801805461173290612d39565b80601f016020809104026020016040519081016040528092919081815260200182805461175e90612d39565b80156117ab5780601f10611780576101008083540402835291602001916117ab565b820191906000526020600020905b81548152906001019060200180831161178e57829003601f168201915b5050505050908060090160009054906101000a900460ff1690508a565b6000600660008154809291906117dd90612dc8565b919050555060006040518061014001604052808b81526020018a81526020018973ffffffffffffffffffffffffffffffffffffffff1681526020018873ffffffffffffffffffffffffffffffffffffffff1681526020018773ffffffffffffffffffffffffffffffffffffffff1681526020014281526020018681526020018581526020018481526020016000600281111561187c5761187b612762565b5b815250905060028190806001815401808255809150506001900390600052602060002090600a0201600090919091909150600082015181600001556020820151816001015560408201518160020160006101000a81548173ffffffffffffffffffffffffffffffffffffffff021916908373ffffffffffffffffffffffffffffffffffffffff16021790555060608201518160030160006101000a81548173ffffffffffffffffffffffffffffffffffffffff021916908373ffffffffffffffffffffffffffffffffffffffff16021790555060808201518160040160006101000a81548173ffffffffffffffffffffffffffffffffffffffff021916908373ffffffffffffffffffffffffffffffffffffffff16021790555060a0820151816005015560c0820151816006015560e082015181600701556101008201518160080190816119ca9190612fb2565b506101208201518160090160006101000a81548160ff021916908360028111156119f7576119f6612762565b5b021790555050506008889080600181540180825580915050600190039060005260206000200160009091909190916101000a81548173ffffffffffffffffffffffffffffffffffffffff021916908373ffffffffffffffffffffffffffffffffffffffff160217905550600191505098975050505050505050565b60006007829080600181540180825580915050600190039060005260206000200160009091909190916101000a81548173ffffffffffffffffffffffffffffffffffffffff021916908373ffffffffffffffffffffffffffffffffffffffff16021790555060019050919050565b611ae8611d80565b6000611afe600184611c6c90919063ffffffff16565b90506000808281548110611b1557611b14612d6a565b5b90600052602060002090600302016040518060600160405290816000820160009054906101000a900473ffffffffffffffffffffffffffffffffffffffff1673ffffffffffffffffffffffffffffffffffffffff1673ffffffffffffffffffffffffffffffffffffffff168152602001600182018054611b9490612d39565b80601f0160208091040260200160405190810160405280929190818152602001828054611bc090612d39565b8015611c0d5780601f10611be257610100808354040283529160200191611c0d565b820191906000526020600020905b815481529060010190602001808311611bf057829003601f168201915b5050505050815260200160028201548152505090508092505050919050565b60038181548110611c3c57600080fd5b90600052602060002090600402016000915090508060000154908060010154908060020154908060030154905084565b60008183611c7a9190613084565b905092915050565b6040518060800160405280600081526020016000815260200160008152602001600081525090565b6040518060a0016040528060008152602001600081526020016000815260200160008152602001606081525090565b6040518061014001604052806000815260200160008152602001600073ffffffffffffffffffffffffffffffffffffffff168152602001600073ffffffffffffffffffffffffffffffffffffffff168152602001600073ffffffffffffffffffffffffffffffffffffffff1681526020016000815260200160008152602001600081526020016060815260200160006002811115611d7a57611d79612762565b5b81525090565b6040518060600160405280600073ffffffffffffffffffffffffffffffffffffffff16815260200160608152602001600081525090565b6000604051905090565b600080fd5b600080fd5b6000819050919050565b611dde81611dcb565b8114611de957600080fd5b50565b600081359050611dfb81611dd5565b92915050565b600060208284031215611e1757611e16611dc1565b5b6000611e2584828501611dec565b91505092915050565b600073ffffffffffffffffffffffffffffffffffffffff82169050919050565b6000611e5982611e2e565b9050919050565b611e6981611e4e565b82525050565b600081519050919050565b600082825260208201905092915050565b60005b83811015611ea9578082015181840152602081019050611e8e565b60008484015250505050565b6000601f19601f8301169050919050565b6000611ed182611e6f565b611edb8185611e7a565b9350611eeb818560208601611e8b565b611ef481611eb5565b840191505092915050565b611f0881611dcb565b82525050565b6000606082019050611f236000830186611e60565b8181036020830152611f358185611ec6565b9050611f446040830184611eff565b949350505050565b6000611f5782611e4e565b9050919050565b611f6781611f4c565b8114611f7257600080fd5b50565b600081359050611f8481611f5e565b92915050565b600060208284031215611fa057611f9f611dc1565b5b6000611fae84828501611f75565b91505092915050565b6000602082019050611fcc6000830184611eff565b92915050565b6000602082019050611fe76000830184611e60565b92915050565b60008060006060848603121561200657612005611dc1565b5b600061201486828701611dec565b935050602061202586828701611dec565b925050604061203686828701611dec565b9150509250925092565b60008115159050919050565b61205581612040565b82525050565b6000602082019050612070600083018461204c565b92915050565b61207f81611dcb565b82525050565b60808201600082015161209b6000850182612076565b5060208201516120ae6020850182612076565b5060408201516120c16040850182612076565b5060608201516120d46060850182612076565b50505050565b60006080820190506120ef6000830184612085565b92915050565b6003811061210257600080fd5b50565b600081359050612114816120f5565b92915050565b6000806040838503121561213157612130611dc1565b5b600061213f85828601611f75565b925050602061215085828601612105565b9150509250929050565b600081519050919050565b600082825260208201905092915050565b6000819050602082019050919050565b61218f81611e4e565b82525050565b60006121a18383612186565b60208301905092915050565b6000602082019050919050565b60006121c58261215a565b6121cf8185612165565b93506121da83612176565b8060005b8381101561220b5781516121f28882612195565b97506121fd836121ad565b9250506001810190506121de565b5085935050505092915050565b6000602082019050818103600083015261223281846121ba565b905092915050565b600082825260208201905092915050565b600061225682611e6f565b612260818561223a565b9350612270818560208601611e8b565b61227981611eb5565b840191505092915050565b600060a08301600083015161229c6000860182612076565b5060208301516122af6020860182612076565b5060408301516122c26040860182612076565b5060608301516122d56060860182612076565b50608083015184820360808601526122ed828261224b565b9150508091505092915050565b600060208201905081810360008301526123148184612284565b905092915050565b61232581611e4e565b811461233057600080fd5b50565b6000813590506123428161231c565b92915050565b600080fd5b600080fd5b7f4e487b7100000000000000000000000000000000000000000000000000000000600052604160045260246000fd5b61238a82611eb5565b810181811067ffffffffffffffff821117156123a9576123a8612352565b5b80604052505050565b60006123bc611db7565b90506123c88282612381565b919050565b600067ffffffffffffffff8211156123e8576123e7612352565b5b6123f182611eb5565b9050602081019050919050565b82818337600083830152505050565b600061242061241b846123cd565b6123b2565b90508281526020810184848401111561243c5761243b61234d565b5b6124478482856123fe565b509392505050565b600082601f83011261246457612463612348565b5b813561247484826020860161240d565b91505092915050565b60008060006060848603121561249657612495611dc1565b5b60006124a486828701612333565b935050602084013567ffffffffffffffff8111156124c5576124c4611dc6565b5b6124d18682870161244f565b92505060406124e286828701611dec565b9150509250925092565b600081519050919050565b600082825260208201905092915050565b6000819050602082019050919050565b60808201600082015161252e6000850182612076565b5060208201516125416020850182612076565b5060408201516125546040850182612076565b5060608201516125676060850182612076565b50505050565b60006125798383612518565b60808301905092915050565b6000602082019050919050565b600061259d826124ec565b6125a781856124f7565b93506125b283612508565b8060005b838110156125e35781516125ca888261256d565b97506125d583612585565b9250506001810190506125b6565b5085935050505092915050565b6000602082019050818103600083015261260a8184612592565b905092915050565b600080600080600060a0868803121561262e5761262d611dc1565b5b600061263c88828901611dec565b955050602061264d88828901611dec565b945050604061265e88828901611dec565b935050606061266f88828901611dec565b925050608086013567ffffffffffffffff8111156126905761268f611dc6565b5b61269c8882890161244f565b9150509295509295909350565b600060a0820190506126be6000830188611eff565b6126cb6020830187611eff565b6126d86040830186611eff565b6126e56060830185611eff565b81810360808301526126f78184611ec6565b90509695505050505050565b6000819050919050565b600061272861272361271e84611e2e565b612703565b611e2e565b9050919050565b600061273a8261270d565b9050919050565b600061274c8261272f565b9050919050565b61275c81612741565b82525050565b7f4e487b7100000000000000000000000000000000000000000000000000000000600052602160045260246000fd5b600381106127a2576127a1612762565b5b50565b60008190506127b382612791565b919050565b60006127c3826127a5565b9050919050565b6127d3816127b8565b82525050565b6000610140830160008301516127f26000860182612076565b5060208301516128056020860182612076565b5060408301516128186040860182612753565b50606083015161282b6060860182612186565b50608083015161283e6080860182612186565b5060a083015161285160a0860182612076565b5060c083015161286460c0860182612076565b5060e083015161287760e0860182612076565b50610100830151848203610100860152612891828261224b565b9150506101208301516128a86101208601826127ca565b508091505092915050565b600060208201905081810360008301526128cd81846127d9565b905092915050565b600081519050919050565b600082825260208201905092915050565b6000819050602082019050919050565b60006101408301600083015161291a6000860182612076565b50602083015161292d6020860182612076565b5060408301516129406040860182612753565b5060608301516129536060860182612186565b5060808301516129666080860182612186565b5060a083015161297960a0860182612076565b5060c083015161298c60c0860182612076565b5060e083015161299f60e0860182612076565b506101008301518482036101008601526129b9828261224b565b9150506101208301516129d06101208601826127ca565b508091505092915050565b60006129e78383612901565b905092915050565b6000602082019050919050565b6000612a07826128d5565b612a1181856128e0565b935083602082028501612a23856128f1565b8060005b85811015612a5f5784840389528151612a4085826129db565b9450612a4b836129ef565b925060208a01995050600181019050612a27565b50829750879550505050505092915050565b60006020820190508181036000830152612a8b81846129fc565b905092915050565b612a9c81612741565b82525050565b612aab816127b8565b82525050565b600061014082019050612ac7600083018d611eff565b612ad4602083018c611eff565b612ae1604083018b612a93565b612aee606083018a611e60565b612afb6080830189611e60565b612b0860a0830188611eff565b612b1560c0830187611eff565b612b2260e0830186611eff565b818103610100830152612b358185611ec6565b9050612b45610120830184612aa2565b9b9a5050505050505050505050565b600080600080600080600080610100898b031215612b7557612b74611dc1565b5b6000612b838b828c01611dec565b9850506020612b948b828c01611dec565b9750506040612ba58b828c01611f75565b9650506060612bb68b828c01612333565b9550506080612bc78b828c01612333565b94505060a0612bd88b828c01611dec565b93505060c0612be98b828c01611dec565b92505060e089013567ffffffffffffffff811115612c0a57612c09611dc6565b5b612c168b828c0161244f565b9150509295985092959890939650565b600060208284031215612c3c57612c3b611dc1565b5b6000612c4a84828501612333565b91505092915050565b6000606083016000830151612c6b6000860182612186565b5060208301518482036020860152612c83828261224b565b9150506040830151612c986040860182612076565b508091505092915050565b60006020820190508181036000830152612cbd8184612c53565b905092915050565b6000608082019050612cda6000830187611eff565b612ce76020830186611eff565b612cf46040830185611eff565b612d016060830184611eff565b95945050505050565b7f4e487b7100000000000000000000000000000000000000000000000000000000600052602260045260246000fd5b60006002820490506001821680612d5157607f821691505b602082108103612d6457612d63612d0a565b5b50919050565b7f4e487b7100000000000000000000000000000000000000000000000000000000600052603260045260246000fd5b7f4e487b7100000000000000000000000000000000000000000000000000000000600052601160045260246000fd5b6000612dd382611dcb565b91507fffffffffffffffffffffffffffffffffffffffffffffffffffffffffffffffff8203612e0557612e04612d99565b5b600182019050919050565b60008190508160005260206000209050919050565b60006020601f8301049050919050565b600082821b905092915050565b600060088302612e727fffffffffffffffffffffffffffffffffffffffffffffffffffffffffffffffff82612e35565b612e7c8683612e35565b95508019841693508086168417925050509392505050565b6000612eaf612eaa612ea584611dcb565b612703565b611dcb565b9050919050565b6000819050919050565b612ec983612e94565b612edd612ed582612eb6565b848454612e42565b825550505050565b600090565b612ef2612ee5565b612efd818484612ec0565b505050565b5b81811015612f2157612f16600082612eea565b600181019050612f03565b5050565b601f821115612f6657612f3781612e10565b612f4084612e25565b81016020851015612f4f578190505b612f63612f5b85612e25565b830182612f02565b50505b505050565b600082821c905092915050565b6000612f8960001984600802612f6b565b1980831691505092915050565b6000612fa28383612f78565b9150826002028217905092915050565b612fbb82611e6f565b67ffffffffffffffff811115612fd457612fd3612352565b5b612fde8254612d39565b612fe9828285612f25565b600060209050601f83116001811461301c576000841561300a578287015190505b6130148582612f96565b86555061307c565b601f19841661302a86612e10565b60005b828110156130525784890151825560018201915060208501945060208101905061302d565b8683101561306f578489015161306b601f891682612f78565b8355505b6001600288020188555050505b505050505050565b600061308f82611dcb565b915061309a83611dcb565b92508282039050818111156130b2576130b1612d99565b5b9291505056fea264697066735822122090ca76c96de8e407972a2f8c51e391141eb3e18dff9c4cc7cc900669365bdd6264736f6c63430008130033",
  "immutableReferences": {},
  "source": "// SPDX-License-Identifier: MIT\n\npragma solidity ^0.8.0;\n\n\npragma experimental ABIEncoderV2;\n\nimport \"@openzeppelin/contracts/utils/math/SafeMath.sol\";\n\nimport { GreenNFTDataCommons } from \"./commons/GreenNFTDataCommons.sol\";\nimport { GreenNFT } from \"./GreenNFT.sol\";\n\n\n/**\n * @notice - This is the storage contract for GreenNFTs\n */\ncontract GreenNFTData is GreenNFTDataCommons {\n    using SafeMath for uint;\n\n    uint currentProjectId;\n    uint currentClaimId;\n    uint currentGreenNFTMetadataId;\n\n    /// Auditor\n    address[] public auditors;\n\n    /// All GreenNFTs addresses\n    address[] public greenNFTAddresses;\n\n    constructor()  {}\n\n    /**\n     * @notice - Register a auditor \n     */\n    function addAuditor(address auditor) public returns (bool) {\n        auditors.push(auditor);\n\n        return (true);\n    }\n\n    /**\n     * @notice - Save a project\n     */\n    function saveProject(\n        address _projectOwner,\n        string memory _projectName,\n        uint _co2Emissions\n    ) public returns (bool) {\n        currentProjectId++;\n        Project memory project = Project({\n            projectOwner: _projectOwner,\n            projectName: _projectName,    \n            co2Emissions: _co2Emissions\n        });\n        projects.push(project); \n\n        return (true);       \n    }\n\n    /**\n     * @notice - Save a CO2 reduction claim\n     */\n    function saveClaim(\n        uint _projectId,\n        uint _co2Reductions,\n        uint _startOfPeriod, \n        uint _endOfPeriod,\n        string memory _referenceDocument\n    ) public returns (bool) {\n        currentClaimId++;\n        Claim memory claim = Claim({\n            projectId: _projectId,\n            startOfPeriod: _startOfPeriod,\n            endOfPeriod: _endOfPeriod,\n            co2Reductions: _co2Reductions,\n            referenceDocument: _referenceDocument\n        });\n        claims.push(claim);\n\n        return (true);\n    }\n\n    /**\n     * @notice - Save metadata of a GreenNFT\n     */\n    function saveGreenNFTMetadata(\n        uint _projectId,\n        uint _claimId,\n        GreenNFT _greenNFT, \n        address _projectOwner,\n        address _auditor,\n        uint _startOfPeriod,          /// e.g). 12:00 UTC, Jan 1, 2022\n        uint _endOfPeriod,            /// e.g). 12:00 UTC, Dec 31, 2024\n        string memory _auditedReport\n    ) public returns (bool) {\n        currentGreenNFTMetadataId++;\n\n        /// Save metadata of a GreenNFT\n        GreenNFTMetadata memory greenNFTMetadata = GreenNFTMetadata({\n            projectId: _projectId,\n            claimId: _claimId,\n            greenNFT: _greenNFT,\n            projectOwner: _projectOwner,\n            auditor: _auditor,\n            timestampOfissuedDate: block.timestamp,\n            startOfPeriod: _startOfPeriod,\n            endOfPeriod: _endOfPeriod,\n            auditedReport: _auditedReport,\n            greenNFTStatus: GreenNFTStatus.Audited\n        });\n        greenNFTMetadatas.push(greenNFTMetadata);\n\n        /// Update GreenNFTs addresses\n        greenNFTAddresses.push(address(_greenNFT));\n\n        return (true);\n    }\n\n    /**\n     * @notice - Save emission data of a GreenNFT\n     */\n    function saveGreenNFTEmissonData(  \n        uint _co2Emissions,\n        uint _co2Reductions,\n        uint _carbonCredits\n    ) public returns (bool) {\n        /// Save emission data of a GreenNFT\n        GreenNFTEmissonData memory greenNFTEmissonData = GreenNFTEmissonData({\n            co2Emissions: _co2Emissions,\n            co2Reductions: _co2Reductions,\n            carbonCredits: _carbonCredits,\n            buyableCarbonCredits: _carbonCredits  /// [Note]: Initially, carbonCredits and buyableCarbonCredits are equal amount\n        });\n        greenNFTEmissonDatas.push(greenNFTEmissonData);\n\n        return (true);\n\n    }\n\n\n    /**\n     * @notice - Update status (\"Open\" or \"Cancelled\")\n     */\n    function updateStatus(GreenNFT _greenNFT, GreenNFTStatus _newStatus) public returns (bool) {\n        /// Identify green's index\n        uint greenNFTMetadataIndex = getGreenNFTMetadataIndex(_greenNFT);\n\n        /// Update metadata of a GreenNFT\n        GreenNFTMetadata storage greenNFTMetadata = greenNFTMetadatas[greenNFTMetadataIndex];\n        greenNFTMetadata.greenNFTStatus = _newStatus;\n\n        return (true);  \n    }\n\n\n    ///-----------------\n    /// Getter methods\n    ///-----------------\n\n    function getProject(uint projectId) public view returns (Project memory _projectId) {\n        uint index = projectId.sub(1);\n        Project memory project = projects[index];\n        return project;\n    }\n\n    function getClaim(uint claimId) public view returns (Claim memory _claim) {\n        uint index = claimId.sub(1);\n        Claim memory claim = claims[index];\n        return claim;\n    }\n\n    function getGreenNFTMetadata(uint greenNFTMetadataId) public view returns (GreenNFTMetadata memory _greenNFTMetadata) {\n        uint index = greenNFTMetadataId.sub(1);\n        GreenNFTMetadata memory greenNFTMetadata = greenNFTMetadatas[index];\n        return greenNFTMetadata;\n    }\n\n    function getGreenNFTMetadataIndex(GreenNFT greenNFT) public view returns (uint _greenNFTMetadataIndex) {\n        address GREEN_NFT = address(greenNFT);\n\n        /// Identify member's index\n        uint greenNFTMetadataIndex;\n        for (uint i=0; i < greenNFTAddresses.length; i++) {\n            if (greenNFTAddresses[i] == GREEN_NFT) {\n                greenNFTMetadataIndex = i;\n            }\n        }\n\n        return greenNFTMetadataIndex;   \n    }\n\n    function getGreenNFTMetadataByNFTAddress(GreenNFT greenNFT) public view returns (GreenNFTMetadata memory _greenNFTMetadata) {\n        address GREEN_NFT = address(greenNFT);\n\n        /// Identify member's index\n        uint index = getGreenNFTMetadataIndex(greenNFT);\n\n        GreenNFTMetadata memory greenNFTMetadata = greenNFTMetadatas[index];\n        return greenNFTMetadata;\n    }\n\n    function getGreenNFTEmissonData(uint greenNFTMetadataId) public view returns (GreenNFTEmissonData memory _greenNFTEmissonData) {\n        /// [Note]: The GreenNFTEmissonData and the GreenNFTMetadata has same greenNFTMetadataId\n        uint index = greenNFTMetadataId.sub(1);\n        GreenNFTEmissonData memory greenNFTEmissonData = greenNFTEmissonDatas[index];\n        return greenNFTEmissonData;\n    }\n\n    function getGreenNFTEmissonDataIndex(GreenNFT greenNFT) public view returns (uint _greenNFTEmissonDataIndex) {\n        address GREEN_NFT = address(greenNFT);\n\n        /// Identify member's index\n        uint greenNFTEmissonDataIndex;\n        for (uint i=0; i < greenNFTAddresses.length; i++) {\n            if (greenNFTAddresses[i] == GREEN_NFT) {\n                greenNFTEmissonDataIndex = i;\n            }\n        }\n\n        return greenNFTEmissonDataIndex;   \n    }\n\n    function getGreenNFTEmissonDataByNFTAddress(GreenNFT greenNFT) public view returns (GreenNFTEmissonData memory _greenNFTEmissonData) {\n        address GREEN_NFT = address(greenNFT);\n\n        /// Identify member's index\n        uint index = getGreenNFTEmissonDataIndex(greenNFT);\n\n        GreenNFTEmissonData memory greenNFTEmissonData = greenNFTEmissonDatas[index];\n        return greenNFTEmissonData;\n    }\n\n    function getGreenNFTMetadatas() public view returns (GreenNFTMetadata[] memory _greenNFTMetadatas) {\n        return greenNFTMetadatas;\n    }\n\n    function getGreenNFTEmissonDatas() public view returns (GreenNFTEmissonData[] memory _greenNFTEmissonDatas) {\n        return greenNFTEmissonDatas;\n    }\n\n    function getAuditors() public view returns (address[] memory _auditors) {\n        return auditors;\n    }\n    \n    function getAuditor(uint index) public view returns (address _auditor) {\n        return auditors[index];\n    }\n\n}\n",
  "sourcePath": "/home/tswisse/Documents/surfacelargepro/newfull/contrat/contracts/GreenNFTData.sol",
  "compiler": {
    "name": "solc",
    "version": "0.8.19+commit.7dd6d404.Emscripten.clang"
  },
  "schemaVersion": "3.4.15",
  "updatedAt": "2023-11-08T12:39:09.450Z",
  "networkType": "ethereum",
  "devdoc": {
    "kind": "dev",
    "methods": {},
    "version": 1
  },
  "userdoc": {
    "kind": "user",
    "methods": {
      "addAuditor(address)": {
        "notice": "- Register a auditor "
      },
      "auditors(uint256)": {
        "notice": "Auditor"
      },
      "getProject(uint256)": {
        "notice": "----------------- Getter methods -----------------"
      },
      "greenNFTAddresses(uint256)": {
        "notice": "All GreenNFTs addresses"
      },
      "projects(uint256)": {
        "notice": "--------------------------- Storages ---------------------------"
      },
      "saveClaim(uint256,uint256,uint256,uint256,string)": {
        "notice": "- Save a CO2 reduction claim"
      },
      "saveGreenNFTEmissonData(uint256,uint256,uint256)": {
        "notice": "- Save emission data of a GreenNFT"
      },
      "saveGreenNFTMetadata(uint256,uint256,address,address,address,uint256,uint256,string)": {
        "notice": "- Save metadata of a GreenNFT"
      },
      "saveProject(address,string,uint256)": {
        "notice": "- Save a project"
      },
      "updateStatus(address,uint8)": {
        "notice": "- Update status (\"Open\" or \"Cancelled\")"
      }
    },
    "notice": "- This is the storage contract for GreenNFTs",
    "version": 1
  }
}