{
  "contractName": "GreenNFTMarketplace",
  "abi": [
    {
      "inputs": [
        {
          "internalType": "contract GreenNFTData",
          "name": "_greenNFTData",
          "type": "address"
        },
        {
          "internalType": "contract AllGreenCoin",
          "name": "_AllGreenCoin",
          "type": "address"
        }
      ],
      "stateMutability": "nonpayable",
      "type": "constructor"
    },
    {
      "inputs": [],
      "name": "GREEN_NFT_MARKETPLACE",
      "outputs": [
        {
          "internalType": "address",
          "name": "",
          "type": "address"
        }
      ],
      "stateMutability": "view",
      "type": "function"
    },
    {
      "inputs": [
        {
          "internalType": "contract GreenNFTData",
          "name": "_greenNFTData",
          "type": "address"
        },
        {
          "internalType": "contract GreenNFT",
          "name": "greenNFT",
          "type": "address"
        }
      ],
      "name": "cancelToPutOnSale",
      "outputs": [],
      "stateMutability": "nonpayable",
      "type": "function"
    },
    {
      "inputs": [],
      "name": "AllGreenCoin",
      "outputs": [
        {
          "internalType": "contract AllGreenCoin",
          "name": "",
          "type": "address"
        }
      ],
      "stateMutability": "view",
      "type": "function"
    },
    {
      "inputs": [],
      "name": "greenNFTData",
      "outputs": [
        {
          "internalType": "contract GreenNFTData",
          "name": "",
          "type": "address"
        }
      ],
      "stateMutability": "view",
      "type": "function"
    },
    {
      "inputs": [
        {
          "internalType": "contract GreenNFTData",
          "name": "_greenNFTData",
          "type": "address"
        },
        {
          "internalType": "contract GreenNFT",
          "name": "greenNFT",
          "type": "address"
        }
      ],
      "name": "openToPutOnSale",
      "outputs": [],
      "stateMutability": "nonpayable",
      "type": "function"
    },
    {
      "inputs": [
        {
          "internalType": "contract GreenNFT",
          "name": "_greenNFT",
          "type": "address"
        },
        {
          "internalType": "uint256",
          "name": "orderOfCarbonCredits",
          "type": "uint256"
        }
      ],
      "name": "buyCarbonCredits",
      "outputs": [
        {
          "internalType": "bool",
          "name": "",
          "type": "bool"
        }
      ],
      "stateMutability": "payable",
      "type": "function"
    },
    {
      "inputs": [
        {
          "internalType": "contract GreenNFT",
          "name": "_greenNFT",
          "type": "address"
        }
      ],
      "name": "getBuyableCarbonCredits",
      "outputs": [
        {
          "internalType": "uint256",
          "name": "_buyableCarbonCredits",
          "type": "uint256"
        }
      ],
      "stateMutability": "view",
      "type": "function"
    },
    {
      "inputs": [
        {
          "internalType": "contract GreenNFT",
          "name": "_greenNFT",
          "type": "address"
        },
        {
          "internalType": "uint256",
          "name": "orderOfCarbonCredits",
          "type": "uint256"
        }
      ],
      "name": "getPurchaseAmountOfCarbonCredits",
      "outputs": [
        {
          "internalType": "uint256",
          "name": "_purchaseAmountOfCarbonCredits",
          "type": "uint256"
        }
      ],
      "stateMutability": "view",
      "type": "function"
    }
  ],
  "bytecode": "0x6080604052600180553480156200001557600080fd5b506040516200186a3803806200186a83398181016040528101906200003b9190620001d0565b80806000806101000a81548173ffffffffffffffffffffffffffffffffffffffff021916908373ffffffffffffffffffffffffffffffffffffffff1602179055505081600360006101000a81548173ffffffffffffffffffffffffffffffffffffffff021916908373ffffffffffffffffffffffffffffffffffffffff16021790555080600460006101000a81548173ffffffffffffffffffffffffffffffffffffffff021916908373ffffffffffffffffffffffffffffffffffffffff160217905550600030905050505062000217565b600080fd5b600073ffffffffffffffffffffffffffffffffffffffff82169050919050565b60006200013f8262000112565b9050919050565b6000620001538262000132565b9050919050565b620001658162000146565b81146200017157600080fd5b50565b60008151905062000185816200015a565b92915050565b6000620001988262000132565b9050919050565b620001aa816200018b565b8114620001b657600080fd5b50565b600081519050620001ca816200019f565b92915050565b60008060408385031215620001ea57620001e96200010d565b5b6000620001fa8582860162000174565b92505060206200020d85828601620001b9565b9150509250929050565b61164380620002276000396000f3fe60806040526004361061007b5760003560e01c80638b2126611161004e5780638b2126611461012a5780639d906c2d14610153578063b3ed0fa314610190578063e75ad115146101cd5761007b565b80630525530a14610080578063225bfe6b146100a957806341abe1ae146100d457806366dea358146100ff575b600080fd5b34801561008c57600080fd5b506100a760048036038101906100a29190610b0f565b6101fd565b005b3480156100b557600080fd5b506100be6103b5565b6040516100cb9190610bae565b60405180910390f35b3480156100e057600080fd5b506100e96103db565b6040516100f69190610bd8565b60405180910390f35b34801561010b57600080fd5b50610114610401565b6040516101219190610c14565b60405180910390f35b34801561013657600080fd5b50610151600480360381019061014c9190610b0f565b610427565b005b34801561015f57600080fd5b5061017a60048036038101906101759190610c2f565b6105e1565b6040516101879190610c75565b60405180910390f35b34801561019c57600080fd5b506101b760048036038101906101b29190610cbc565b61068f565b6040516101c49190610c75565b60405180910390f35b6101e760048036038101906101e29190610cbc565b6106ac565b6040516101f49190610d17565b60405180910390f35b60008290508073ffffffffffffffffffffffffffffffffffffffff166344c5bbf88360026040518363ffffffff1660e01b815260040161023e929190610dca565b6020604051808303816000875af115801561025d573d6000803e3d6000fd5b505050506040513d601f19601f820116820180604052508101906102819190610e1f565b5060008173ffffffffffffffffffffffffffffffffffffffff16633fbd34c9846040518263ffffffff1660e01b81526004016102bd9190610e4c565b608060405180830381865afa1580156102da573d6000803e3d6000fd5b505050506040513d601f19601f820116820180604052508101906102fe9190610f8a565b9050600081604001519050600033905060008054906101000a900473ffffffffffffffffffffffffffffffffffffffff1673ffffffffffffffffffffffffffffffffffffffff1663a9059cbb82846040518363ffffffff1660e01b8152600401610369929190610fb7565b6020604051808303816000875af1158015610388573d6000803e3d6000fd5b505050506040513d601f19601f820116820180604052508101906103ac9190610e1f565b50505050505050565b600360009054906101000a900473ffffffffffffffffffffffffffffffffffffffff1681565b600260009054906101000a900473ffffffffffffffffffffffffffffffffffffffff1681565b600460009054906101000a900473ffffffffffffffffffffffffffffffffffffffff1681565b60008290508073ffffffffffffffffffffffffffffffffffffffff166344c5bbf88360016040518363ffffffff1660e01b8152600401610468929190610dca565b6020604051808303816000875af1158015610487573d6000803e3d6000fd5b505050506040513d601f19601f820116820180604052508101906104ab9190610e1f565b5060008173ffffffffffffffffffffffffffffffffffffffff16633fbd34c9846040518263ffffffff1660e01b81526004016104e79190610e4c565b608060405180830381865afa158015610504573d6000803e3d6000fd5b505050506040513d601f19601f820116820180604052508101906105289190610f8a565b9050600081604001519050600033905060008054906101000a900473ffffffffffffffffffffffffffffffffffffffff1673ffffffffffffffffffffffffffffffffffffffff166323b872dd8230856040518463ffffffff1660e01b815260040161059593929190610fe0565b6020604051808303816000875af11580156105b4573d6000803e3d6000fd5b505050506040513d601f19601f820116820180604052508101906105d89190610e1f565b50505050505050565b600080600360009054906101000a900473ffffffffffffffffffffffffffffffffffffffff1673ffffffffffffffffffffffffffffffffffffffff16633fbd34c9846040518263ffffffff1660e01b815260040161063f9190610e4c565b608060405180830381865afa15801561065c573d6000803e3d6000fd5b505050506040513d601f19601f820116820180604052508101906106809190610f8a565b90508060600151915050919050565b600080826001546106a09190611046565b90508091505092915050565b600080339050600084905060006106c2826105e1565b905080851115610707576040517f08c379a00000000000000000000000000000000000000000000000000000000081526004016106fe9061110b565b60405180910390fd5b6000600360009054906101000a900473ffffffffffffffffffffffffffffffffffffffff1673ffffffffffffffffffffffffffffffffffffffff1663dc0daef3846040518263ffffffff1660e01b81526004016107649190610e4c565b600060405180830381865afa158015610781573d6000803e3d6000fd5b505050506040513d6000823e3d601f19601f820116820180604052508101906107aa9190611378565b90506000600360009054906101000a900473ffffffffffffffffffffffffffffffffffffffff1673ffffffffffffffffffffffffffffffffffffffff16635aef244783602001516040518263ffffffff1660e01b815260040161080d9190610c75565b600060405180830381865afa15801561082a573d6000803e3d6000fd5b505050506040513d6000823e3d601f19601f820116820180604052508101906108539190611469565b6000015190506000600360009054906101000a900473ffffffffffffffffffffffffffffffffffffffff1673ffffffffffffffffffffffffffffffffffffffff1663f0f3f2c8836040518263ffffffff1660e01b81526004016108b69190610c75565b600060405180830381865afa1580156108d3573d6000803e3d6000fd5b505050506040513d6000823e3d601f19601f820116820180604052508101906108fc9190611532565b60000151905060008190506000610913878b61068f565b9050348114610957576040517f08c379a000000000000000000000000000000000000000000000000000000000815260040161094e906115ed565b60405180910390fd5b8173ffffffffffffffffffffffffffffffffffffffff166108fc829081150290604051600060405180830381858888f1935050505015801561099d573d6000803e3d6000fd5b50600460009054906101000a900473ffffffffffffffffffffffffffffffffffffffff1673ffffffffffffffffffffffffffffffffffffffff1663a9059cbb89836040518363ffffffff1660e01b81526004016109fb929190610fb7565b6020604051808303816000875af1158015610a1a573d6000803e3d6000fd5b505050506040513d601f19601f82011682018060405250810190610a3e9190610e1f565b50505050505050505092915050565b6000604051905090565b600080fd5b600080fd5b600073ffffffffffffffffffffffffffffffffffffffff82169050919050565b6000610a8c82610a61565b9050919050565b6000610a9e82610a81565b9050919050565b610aae81610a93565b8114610ab957600080fd5b50565b600081359050610acb81610aa5565b92915050565b6000610adc82610a81565b9050919050565b610aec81610ad1565b8114610af757600080fd5b50565b600081359050610b0981610ae3565b92915050565b60008060408385031215610b2657610b25610a57565b5b6000610b3485828601610abc565b9250506020610b4585828601610afa565b9150509250929050565b6000819050919050565b6000610b74610b6f610b6a84610a61565b610b4f565b610a61565b9050919050565b6000610b8682610b59565b9050919050565b6000610b9882610b7b565b9050919050565b610ba881610b8d565b82525050565b6000602082019050610bc36000830184610b9f565b92915050565b610bd281610a81565b82525050565b6000602082019050610bed6000830184610bc9565b92915050565b6000610bfe82610b7b565b9050919050565b610c0e81610bf3565b82525050565b6000602082019050610c296000830184610c05565b92915050565b600060208284031215610c4557610c44610a57565b5b6000610c5384828501610afa565b91505092915050565b6000819050919050565b610c6f81610c5c565b82525050565b6000602082019050610c8a6000830184610c66565b92915050565b610c9981610c5c565b8114610ca457600080fd5b50565b600081359050610cb681610c90565b92915050565b60008060408385031215610cd357610cd2610a57565b5b6000610ce185828601610afa565b9250506020610cf285828601610ca7565b9150509250929050565b60008115159050919050565b610d1181610cfc565b82525050565b6000602082019050610d2c6000830184610d08565b92915050565b6000610d3d82610b7b565b9050919050565b610d4d81610d32565b82525050565b7f4e487b7100000000000000000000000000000000000000000000000000000000600052602160045260246000fd5b60038110610d9357610d92610d53565b5b50565b6000819050610da482610d82565b919050565b6000610db482610d96565b9050919050565b610dc481610da9565b82525050565b6000604082019050610ddf6000830185610d44565b610dec6020830184610dbb565b9392505050565b610dfc81610cfc565b8114610e0757600080fd5b50565b600081519050610e1981610df3565b92915050565b600060208284031215610e3557610e34610a57565b5b6000610e4384828501610e0a565b91505092915050565b6000602082019050610e616000830184610d44565b92915050565b600080fd5b6000601f19601f8301169050919050565b7f4e487b7100000000000000000000000000000000000000000000000000000000600052604160045260246000fd5b610eb582610e6c565b810181811067ffffffffffffffff82111715610ed457610ed3610e7d565b5b80604052505050565b6000610ee7610a4d565b9050610ef38282610eac565b919050565b600080fd5b600081519050610f0c81610c90565b92915050565b600060808284031215610f2857610f27610e67565b5b610f326080610edd565b90506000610f4284828501610efd565b6000830152506020610f5684828501610efd565b6020830152506040610f6a84828501610efd565b6040830152506060610f7e84828501610efd565b60608301525092915050565b600060808284031215610fa057610f9f610a57565b5b6000610fae84828501610f12565b91505092915050565b6000604082019050610fcc6000830185610bc9565b610fd96020830184610c66565b9392505050565b6000606082019050610ff56000830186610bc9565b6110026020830185610bc9565b61100f6040830184610c66565b949350505050565b7f4e487b7100000000000000000000000000000000000000000000000000000000600052601160045260246000fd5b600061105182610c5c565b915061105c83610c5c565b925082820261106a81610c5c565b9150828204841483151761108157611080611017565b5b5092915050565b600082825260208201905092915050565b7f4f72646572206f6620636172626f6e2063726564697473206d7573742062652060008201527f6c657373207468616e2062757961626c6520636172626f6e2063726564697473602082015250565b60006110f5604083611088565b915061110082611099565b604082019050919050565b60006020820190508181036000830152611124816110e8565b9050919050565b60008151905061113a81610ae3565b92915050565b61114981610a81565b811461115457600080fd5b50565b60008151905061116681611140565b92915050565b600080fd5b600080fd5b600067ffffffffffffffff82111561119157611190610e7d565b5b61119a82610e6c565b9050602081019050919050565b60005b838110156111c55780820151818401526020810190506111aa565b60008484015250505050565b60006111e46111df84611176565b610edd565b905082815260208101848484011115611200576111ff611171565b5b61120b8482856111a7565b509392505050565b600082601f8301126112285761122761116c565b5b81516112388482602086016111d1565b91505092915050565b6003811061124e57600080fd5b50565b60008151905061126081611241565b92915050565b6000610140828403121561127d5761127c610e67565b5b611288610140610edd565b9050600061129884828501610efd565b60008301525060206112ac84828501610efd565b60208301525060406112c08482850161112b565b60408301525060606112d484828501611157565b60608301525060806112e884828501611157565b60808301525060a06112fc84828501610efd565b60a08301525060c061131084828501610efd565b60c08301525060e061132484828501610efd565b60e08301525061010082015167ffffffffffffffff81111561134957611348610ef8565b5b61135584828501611213565b6101008301525061012061136b84828501611251565b6101208301525092915050565b60006020828403121561138e5761138d610a57565b5b600082015167ffffffffffffffff8111156113ac576113ab610a5c565b5b6113b884828501611266565b91505092915050565b600060a082840312156113d7576113d6610e67565b5b6113e160a0610edd565b905060006113f184828501610efd565b600083015250602061140584828501610efd565b602083015250604061141984828501610efd565b604083015250606061142d84828501610efd565b606083015250608082015167ffffffffffffffff81111561145157611450610ef8565b5b61145d84828501611213565b60808301525092915050565b60006020828403121561147f5761147e610a57565b5b600082015167ffffffffffffffff81111561149d5761149c610a5c565b5b6114a9848285016113c1565b91505092915050565b6000606082840312156114c8576114c7610e67565b5b6114d26060610edd565b905060006114e284828501611157565b600083015250602082015167ffffffffffffffff81111561150657611505610ef8565b5b61151284828501611213565b602083015250604061152684828501610efd565b60408301525092915050565b60006020828403121561154857611547610a57565b5b600082015167ffffffffffffffff81111561156657611565610a5c565b5b611572848285016114b2565b91505092915050565b7f507572636861736520616d6f756e74206f6620636172626f6e2063726564697460008201527f73206d75737420626520657175616c20746f206d73672e76616c756500000000602082015250565b60006115d7603c83611088565b91506115e28261157b565b604082019050919050565b60006020820190508181036000830152611606816115ca565b905091905056fea26469706673582212206a8bda2d5f24b882c4907710987b5a46ce60cf8f1316b0cac0976d3985c2376464736f6c63430008130033",
  "immutableReferences": {},
  "source": "// SPDX-License-Identifier: MIT\n\npragma solidity ^0.8.0;\n\npragma experimental ABIEncoderV2;\n\nimport \"@openzeppelin/contracts/utils/math/SafeMath.sol\";\n//import { GreenNFTMarketplaceCommons } from \"./commons/GreenNFTMarketplaceCommons.sol\";\nimport { GreenNFT } from \"./GreenNFT.sol\";\nimport { GreenNFTTradable } from \"./GreenNFTTradable.sol\";\nimport { GreenNFTData } from \"./GreenNFTData.sol\";\nimport { AllGreenCoin } from \"./AllGreenCoin.sol\";\n\n\ncontract GreenNFTMarketplace is GreenNFTTradable {\n    using SafeMath for uint256;\n\n    uint unitPriceOfCarbonCredits = 1;  /// 1 ETH per 1 carbon crefits\n\n    address public GREEN_NFT_MARKETPLACE;\n\n    GreenNFTData public greenNFTData;\n    AllGreenCoin public AllGreenCoin;\n\n    constructor(GreenNFTData _greenNFTData, AllGreenCoin _AllGreenCoin) public GreenNFTTradable(_AllGreenCoin) {\n        greenNFTData = _greenNFTData;\n        AllGreenCoin = _AllGreenCoin;\n\n        address payable GREEN_NFT_MARKETPLACE = payable(address(this));\n        //address payable seller = payable(_seller);\n    }\n\n    /** \n     * @notice - Buy function is that a buyer (msg.sender) purchase carbon credits from a seller. (Reference from IERC721.sol)\n     * @notice - a buyer (msg.sender) purchase carbon credits with ETH (msg.value)\n     */\n    function buyCarbonCredits(GreenNFT _greenNFT, uint orderOfCarbonCredits) public payable returns (bool) {\n        address buyer = msg.sender;  /// [Note]: In advance, a buyer (msg.sender) must transfer msg.value from front-end.\n\n        /// Check whether orderOfCarbonCredits is less than buyableCarbonCredits\n        GreenNFT greenNFT = _greenNFT;\n        uint buyableCarbonCredits = getBuyableCarbonCredits(greenNFT);\n        require (orderOfCarbonCredits <= buyableCarbonCredits, \"Order of carbon credits must be less than buyable carbon credits\");\n\n        GreenNFTData.GreenNFTMetadata memory greenNFTMetadata = greenNFTData.getGreenNFTMetadataByNFTAddress(greenNFT);\n        uint _projectId = greenNFTData.getClaim(greenNFTMetadata.claimId).projectId;\n        address _seller = greenNFTData.getProject(_projectId).projectOwner;\n        //address payable seller = address(uint160(_seller)); \n        address payable seller = payable(_seller); /// Convert owner address with payable\n        \n        /// Calculation of purchase amount (Unit price * buyable carbon credits) \n        uint purchaseAmountOfCarbonCredits = getPurchaseAmountOfCarbonCredits(greenNFT, orderOfCarbonCredits);\n        require(purchaseAmountOfCarbonCredits == msg.value, \"Purchase amount of carbon credits must be equal to msg.value\");\n\n        /// ETH amount purchased is transferred from a buyer's wallet a projectOwner's (seller's) wallet\n        seller.transfer(purchaseAmountOfCarbonCredits);\n\n        /// CCTs (Carbon Credit Tokens) are transferred into the buyer's wallet address\n        AllGreenCoin.transfer(buyer, purchaseAmountOfCarbonCredits);\n    }\n\n\n    ///--------------------------\n    /// Getter methods\n    ///--------------------------\n\n    /**\n     * @notice - Get buyable carbon credits\n     */\n    function getBuyableCarbonCredits(GreenNFT _greenNFT) public view returns (uint _buyableCarbonCredits) {\n        GreenNFTData.GreenNFTEmissonData memory greenNFTEmissonData = greenNFTData.getGreenNFTEmissonDataByNFTAddress(_greenNFT);\n        //GreenNFTData.GreenNFTMetadata memory greenNFTMetadata = greenNFTData.getGreenNFTMetadataByNFTAddress(_greenNFT);\n        return greenNFTEmissonData.buyableCarbonCredits;\n        //return greenNFTMetadata.buyableCarbonCredits;\n    }\n\n    /**\n     * @notice - Calculation of buy amount (Unit price * order of carbon credits)\n     */\n    function getPurchaseAmountOfCarbonCredits(GreenNFT _greenNFT, uint orderOfCarbonCredits) public view returns (uint _purchaseAmountOfCarbonCredits) {\n        uint purchaseAmountOfCarbonCredits = unitPriceOfCarbonCredits * orderOfCarbonCredits;  /// 1 ETH * order of carbon credits\n        return purchaseAmountOfCarbonCredits;\n    }\n    \n\n}\n",
  "sourcePath": "/home/tswisse/Documents/Ashdown/contrat/contracts/GreenNFTMarketPlace.sol",
  "compiler": {
    "name": "solc",
    "version": "0.8.19+commit.7dd6d404.Emscripten.clang"
  },
  "schemaVersion": "3.4.14",
  "updatedAt": "2023-07-25T15:49:32.591Z",
  "devdoc": {
    "kind": "dev",
    "methods": {},
    "version": 1
  },
  "userdoc": {
    "kind": "user",
    "methods": {
      "GREEN_NFT_MARKETPLACE()": {
        "notice": "1 ETH per 1 carbon crefits"
      },
      "buyCarbonCredits(address,uint256)": {
        "notice": "- Buy function is that a buyer (msg.sender) purchase carbon credits from a seller. (Reference from IERC721.sol)- a buyer (msg.sender) purchase carbon credits with ETH (msg.value)"
      },
      "cancelToPutOnSale(address,address)": {
        "notice": "- Cancel to put on sale of carbon credits.- Caller is a seller"
      },
      "getBuyableCarbonCredits(address)": {
        "notice": "- Get buyable carbon credits"
      },
      "getPurchaseAmountOfCarbonCredits(address,uint256)": {
        "notice": "- Calculation of buy amount (Unit price * order of carbon credits)"
      },
      "openToPutOnSale(address,address)": {
        "notice": "- Open to put on sale of carbon credits.- Caller is a projectOwner (Seller)"
      }
    },
    "version": 1
  }
}