{
  "contractName": "GreenNFTFactory2",
  "abi": [
    {
      "inputs": [
        {
          "internalType": "contract GreenNFTMarketPlace",
          "name": "_greenNFTMarketPlace",
          "type": "address"
        },
        {
          "internalType": "contract GreenNFTData",
          "name": "_greenNFTData",
          "type": "address"
        },
        {
          "internalType": "contract AllGreenCoin",
          "name": "_allGreenCoin",
          "type": "address"
        }
      ],
      "stateMutability": "nonpayable",
      "type": "constructor"
    },
    {
      "anonymous": false,
      "inputs": [
        {
          "indexed": false,
          "internalType": "uint256",
          "name": "_projectId",
          "type": "uint256"
        },
        {
          "indexed": false,
          "internalType": "uint256",
          "name": "claimId",
          "type": "uint256"
        },
        {
          "indexed": false,
          "internalType": "uint256",
          "name": "_co2Reductions",
          "type": "uint256"
        },
        {
          "indexed": false,
          "internalType": "string",
          "name": "_referenceDocument",
          "type": "string"
        }
      ],
      "name": "ClaimAudited",
      "type": "event"
    },
    {
      "anonymous": false,
      "inputs": [
        {
          "indexed": false,
          "internalType": "uint256",
          "name": "projectId",
          "type": "uint256"
        },
        {
          "indexed": false,
          "internalType": "uint256",
          "name": "claimId",
          "type": "uint256"
        },
        {
          "indexed": false,
          "internalType": "contract GreenNFT",
          "name": "greenNFT",
          "type": "address"
        },
        {
          "indexed": false,
          "internalType": "uint256",
          "name": "carbonCredits",
          "type": "uint256"
        }
      ],
      "name": "GreenNFTCreated",
      "type": "event"
    },
    {
      "anonymous": false,
      "inputs": [
        {
          "indexed": true,
          "internalType": "address",
          "name": "previousOwner",
          "type": "address"
        },
        {
          "indexed": true,
          "internalType": "address",
          "name": "newOwner",
          "type": "address"
        }
      ],
      "name": "OwnershipTransferred",
      "type": "event"
    },
    {
      "inputs": [],
      "name": "allGreenCoin",
      "outputs": [
        {
          "internalType": "contract AllGreenCoin",
          "name": "",
          "type": "address"
        }
      ],
      "stateMutability": "view",
      "type": "function"
    },
    {
      "inputs": [],
      "name": "greenNFTData",
      "outputs": [
        {
          "internalType": "contract GreenNFTData",
          "name": "",
          "type": "address"
        }
      ],
      "stateMutability": "view",
      "type": "function"
    },
    {
      "inputs": [],
      "name": "greenNFTMarketPlace",
      "outputs": [
        {
          "internalType": "contract GreenNFTMarketPlace",
          "name": "",
          "type": "address"
        }
      ],
      "stateMutability": "view",
      "type": "function"
    },
    {
      "inputs": [
        {
          "internalType": "address",
          "name": "",
          "type": "address"
        }
      ],
      "name": "isAuditor",
      "outputs": [
        {
          "internalType": "bool",
          "name": "",
          "type": "bool"
        }
      ],
      "stateMutability": "view",
      "type": "function"
    },
    {
      "inputs": [],
      "name": "owner",
      "outputs": [
        {
          "internalType": "address",
          "name": "",
          "type": "address"
        }
      ],
      "stateMutability": "view",
      "type": "function"
    },
    {
      "inputs": [],
      "name": "renounceOwnership",
      "outputs": [],
      "stateMutability": "nonpayable",
      "type": "function"
    },
    {
      "inputs": [
        {
          "internalType": "address",
          "name": "newOwner",
          "type": "address"
        }
      ],
      "name": "transferOwnership",
      "outputs": [],
      "stateMutability": "nonpayable",
      "type": "function"
    },
    {
      "inputs": [
        {
          "internalType": "uint256",
          "name": "claimId",
          "type": "uint256"
        },
        {
          "internalType": "string",
          "name": "auditedReport",
          "type": "string"
        }
      ],
      "name": "auditClaim",
      "outputs": [
        {
          "internalType": "bool",
          "name": "",
          "type": "bool"
        }
      ],
      "stateMutability": "nonpayable",
      "type": "function"
    },
    {
      "inputs": [],
      "name": "baseTokenURI",
      "outputs": [
        {
          "internalType": "string",
          "name": "",
          "type": "string"
        }
      ],
      "stateMutability": "pure",
      "type": "function"
    },
    {
      "inputs": [
        {
          "internalType": "string",
          "name": "_auditedReport",
          "type": "string"
        }
      ],
      "name": "getTokenURI",
      "outputs": [
        {
          "internalType": "string",
          "name": "",
          "type": "string"
        }
      ],
      "stateMutability": "view",
      "type": "function"
    }
  ],
  "bytecode": "0x60806040523480156200001157600080fd5b5060405162005b8938038062005b8983398181016040528101906200003791906200035a565b620000576200004b6200018660201b60201c565b6200018e60201b60201c565b82600360006101000a81548173ffffffffffffffffffffffffffffffffffffffff021916908373ffffffffffffffffffffffffffffffffffffffff16021790555081600460006101000a81548173ffffffffffffffffffffffffffffffffffffffff021916908373ffffffffffffffffffffffffffffffffffffffff16021790555080600560006101000a81548173ffffffffffffffffffffffffffffffffffffffff021916908373ffffffffffffffffffffffffffffffffffffffff160217905550600360009054906101000a900473ffffffffffffffffffffffffffffffffffffffff16600160006101000a81548173ffffffffffffffffffffffffffffffffffffffff021916908373ffffffffffffffffffffffffffffffffffffffff160217905550505050620003b6565b600033905090565b60008060009054906101000a900473ffffffffffffffffffffffffffffffffffffffff169050816000806101000a81548173ffffffffffffffffffffffffffffffffffffffff021916908373ffffffffffffffffffffffffffffffffffffffff1602179055508173ffffffffffffffffffffffffffffffffffffffff168173ffffffffffffffffffffffffffffffffffffffff167f8be0079c531659141344cd1fd0a4f28419497f9722a3daafe3b4186f6b6457e060405160405180910390a35050565b600080fd5b600073ffffffffffffffffffffffffffffffffffffffff82169050919050565b6000620002848262000257565b9050919050565b6000620002988262000277565b9050919050565b620002aa816200028b565b8114620002b657600080fd5b50565b600081519050620002ca816200029f565b92915050565b6000620002dd8262000277565b9050919050565b620002ef81620002d0565b8114620002fb57600080fd5b50565b6000815190506200030f81620002e4565b92915050565b6000620003228262000277565b9050919050565b620003348162000315565b81146200034057600080fd5b50565b600081519050620003548162000329565b92915050565b60008060006060848603121562000376576200037562000252565b5b60006200038686828701620002b9565b93505060206200039986828701620002fe565b9250506040620003ac8682870162000343565b9150509250925092565b6157c380620003c66000396000f3fe60806040523480156200001157600080fd5b5060043610620000ac5760003560e01c80638da5cb5b116200006f5780638da5cb5b146200016d578063d3e1f6e3146200018f578063d547cfb714620001c5578063ebe3d7da14620001e7578063f2fde38b146200020957620000ac565b8063022a85b814620000b15780631d04b91814620000e7578063225bfe6b146200010957806349b90557146200012b578063715018a61462000161575b600080fd5b620000cf6004803603810190620000c991906200127b565b62000229565b604051620000de9190620012fe565b60405180910390f35b620000f16200076c565b604051620001009190620013a6565b60405180910390f35b6200011362000792565b604051620001229190620013e8565b60405180910390f35b6200014960048036038101906200014391906200144a565b620007b8565b604051620001589190620012fe565b60405180910390f35b6200016b620007d8565b005b62000177620007f0565b6040516200018691906200148d565b60405180910390f35b620001ad6004803603810190620001a79190620014aa565b62000819565b604051620001bc919062001584565b60405180910390f35b620001cf62000837565b604051620001de919062001584565b60405180910390f35b620001f162000874565b604051620002009190620015cd565b60405180910390f35b6200022760048036038101906200022191906200144a565b6200089a565b005b6000806000600460009054906101000a900473ffffffffffffffffffffffffffffffffffffffff1673ffffffffffffffffffffffffffffffffffffffff166357de4a6e6040518163ffffffff1660e01b8152600401600060405180830381865afa1580156200029c573d6000803e3d6000fd5b505050506040513d6000823e3d601f19601f82011682018060405250810190620002c79190620016dc565b905060005b81518110156200030c57818181518110620002ec57620002eb6200172d565b5b60200260200101519250808062000303906200178b565b915050620002cc565b50600260003373ffffffffffffffffffffffffffffffffffffffff1673ffffffffffffffffffffffffffffffffffffffff16815260200190815260200160002060009054906101000a900460ff166200039c576040517f08c379a0000000000000000000000000000000000000000000000000000000008152600401620003939062001828565b60405180910390fd5b600080600460009054906101000a900473ffffffffffffffffffffffffffffffffffffffff1673ffffffffffffffffffffffffffffffffffffffff166357de4a6e6040518163ffffffff1660e01b8152600401600060405180830381865afa1580156200040d573d6000803e3d6000fd5b505050506040513d6000823e3d601f19601f82011682018060405250810190620004389190620016dc565b905060005b8151811015620005d557600460009054906101000a900473ffffffffffffffffffffffffffffffffffffffff1673ffffffffffffffffffffffffffffffffffffffff166393f80ff4826040518263ffffffff1660e01b8152600401620004a491906200185b565b602060405180830381865afa158015620004c2573d6000803e3d6000fd5b505050506040513d601f19601f82011682018060405250810190620004e8919062001878565b73ffffffffffffffffffffffffffffffffffffffff163373ffffffffffffffffffffffffffffffffffffffff1603620005bf57600460009054906101000a900473ffffffffffffffffffffffffffffffffffffffff1673ffffffffffffffffffffffffffffffffffffffff166393f80ff4826040518263ffffffff1660e01b81526004016200057891906200185b565b602060405180830381865afa15801562000596573d6000803e3d6000fd5b505050506040513d601f19601f82011682018060405250810190620005bc919062001878565b92505b8080620005cc906200178b565b9150506200043d565b508173ffffffffffffffffffffffffffffffffffffffff163373ffffffffffffffffffffffffffffffffffffffff161462000647576040517f08c379a00000000000000000000000000000000000000000000000000000000081526004016200063e90620018fa565b60405180910390fd5b6000600460009054906101000a900473ffffffffffffffffffffffffffffffffffffffff1673ffffffffffffffffffffffffffffffffffffffff16635aef2447896040518263ffffffff1660e01b8152600401620006a691906200185b565b600060405180830381865afa158015620006c4573d6000803e3d6000fd5b505050506040513d6000823e3d601f19601f82011682018060405250810190620006ef919062001a75565b90506000816000015190506000826020015190506000836080015190507fe054c3fc38be91593faca4132dd66807e623d14070b9a3ac45797ab78b497df9838c848460405162000743949392919062001ac6565b60405180910390a162000759838c848d62000924565b5060019850505050505050505092915050565b600560009054906101000a900473ffffffffffffffffffffffffffffffffffffffff1681565b600460009054906101000a900473ffffffffffffffffffffffffffffffffffffffff1681565b60026020528060005260406000206000915054906101000a900460ff1681565b620007e262000b6a565b620007ee600062000bef565b565b60008060009054906101000a900473ffffffffffffffffffffffffffffffffffffffff16905090565b6060620008306200082962000837565b8362000cb3565b9050919050565b60606040518060400160405280601581526020017f68747470733a2f2f697066732e696f2f697066732f0000000000000000000000815250905090565b600360009054906101000a900473ffffffffffffffffffffffffffffffffffffffff1681565b620008a462000b6a565b600073ffffffffffffffffffffffffffffffffffffffff168173ffffffffffffffffffffffffffffffffffffffff160362000916576040517f08c379a00000000000000000000000000000000000000000000000000000000081526004016200090d9062001b90565b60405180910390fd5b620009218162000bef565b50565b600080600460009054906101000a900473ffffffffffffffffffffffffffffffffffffffff1673ffffffffffffffffffffffffffffffffffffffff1663f0f3f2c8876040518263ffffffff1660e01b81526004016200098491906200185b565b600060405180830381865afa158015620009a2573d6000803e3d6000fd5b505050506040513d6000823e3d601f19601f82011682018060405250810190620009cd919062001c40565b905060008160000151905060008260200151905060006040518060400160405280600981526020017f475245454e5f4e465400000000000000000000000000000000000000000000008152509050600062000a288762000819565b905060008484848460405162000a3e90620010bc565b62000a4d949392919062001c91565b604051809103906000f08015801562000a6a573d6000803e3d6000fd5b50905060008990507f0531f4b9e3da58b3f67a83eedb94e56632898e25574a57b3afba0385a7e658158c8c848460405162000aa9949392919062001d18565b60405180910390a1600560009054906101000a900473ffffffffffffffffffffffffffffffffffffffff1673ffffffffffffffffffffffffffffffffffffffff1663a9059cbb87836040518363ffffffff1660e01b815260040162000b1092919062001d65565b6020604051808303816000875af115801562000b30573d6000803e3d6000fd5b505050506040513d601f19601f8201168201806040525081019062000b56919062001dc3565b506001975050505050505050949350505050565b62000b7462000cf9565b73ffffffffffffffffffffffffffffffffffffffff1662000b94620007f0565b73ffffffffffffffffffffffffffffffffffffffff161462000bed576040517f08c379a000000000000000000000000000000000000000000000000000000000815260040162000be49062001e45565b60405180910390fd5b565b60008060009054906101000a900473ffffffffffffffffffffffffffffffffffffffff169050816000806101000a81548173ffffffffffffffffffffffffffffffffffffffff021916908373ffffffffffffffffffffffffffffffffffffffff1602179055508173ffffffffffffffffffffffffffffffffffffffff168173ffffffffffffffffffffffffffffffffffffffff167f8be0079c531659141344cd1fd0a4f28419497f9722a3daafe3b4186f6b6457e060405160405180910390a35050565b606062000cf1838360405180602001604052806000815250604051806020016040528060008152506040518060200160405280600081525062000d01565b905092915050565b600033905090565b60606000869050600086905060008690506000869050600086905060008151835185518751895162000d34919062001e67565b62000d40919062001e67565b62000d4c919062001e67565b62000d58919062001e67565b67ffffffffffffffff81111562000d745762000d7362001134565b5b6040519080825280601f01601f19166020018201604052801562000da75781602001600182028036833780820191505090505b50905060008190506000805b885181101562000e475788818151811062000dd35762000dd26200172d565b5b602001015160f81c60f81b83838062000dec906200178b565b94508151811062000e025762000e016200172d565b5b60200101907effffffffffffffffffffffffffffffffffffffffffffffffffffffffffffff1916908160001a905350808062000e3e906200178b565b91505062000db3565b5060005b875181101562000edf5787818151811062000e6b5762000e6a6200172d565b5b602001015160f81c60f81b83838062000e84906200178b565b94508151811062000e9a5762000e996200172d565b5b60200101907effffffffffffffffffffffffffffffffffffffffffffffffffffffffffffff1916908160001a905350808062000ed6906200178b565b91505062000e4b565b5060005b865181101562000f775786818151811062000f035762000f026200172d565b5b602001015160f81c60f81b83838062000f1c906200178b565b94508151811062000f325762000f316200172d565b5b60200101907effffffffffffffffffffffffffffffffffffffffffffffffffffffffffffff1916908160001a905350808062000f6e906200178b565b91505062000ee3565b5060005b85518110156200100f5785818151811062000f9b5762000f9a6200172d565b5b602001015160f81c60f81b83838062000fb4906200178b565b94508151811062000fca5762000fc96200172d565b5b60200101907effffffffffffffffffffffffffffffffffffffffffffffffffffffffffffff1916908160001a905350808062001006906200178b565b91505062000f7b565b5060005b8451811015620010a7578481815181106200103357620010326200172d565b5b602001015160f81c60f81b8383806200104c906200178b565b9450815181106200106257620010616200172d565b5b60200101907effffffffffffffffffffffffffffffffffffffffffffffffffffffffffffff1916908160001a90535080806200109e906200178b565b91505062001013565b50819850505050505050505095945050505050565b6138eb8062001ea383390190565b6000604051905090565b600080fd5b600080fd5b6000819050919050565b620010f381620010de565b8114620010ff57600080fd5b50565b6000813590506200111381620010e8565b92915050565b600080fd5b600080fd5b6000601f19601f8301169050919050565b7f4e487b7100000000000000000000000000000000000000000000000000000000600052604160045260246000fd5b6200116e8262001123565b810181811067ffffffffffffffff8211171562001190576200118f62001134565b5b80604052505050565b6000620011a5620010ca565b9050620011b3828262001163565b919050565b600067ffffffffffffffff821115620011d657620011d562001134565b5b620011e18262001123565b9050602081019050919050565b82818337600083830152505050565b6000620012146200120e84620011b8565b62001199565b9050828152602081018484840111156200123357620012326200111e565b5b62001240848285620011ee565b509392505050565b600082601f83011262001260576200125f62001119565b5b813562001272848260208601620011fd565b91505092915050565b60008060408385031215620012955762001294620010d4565b5b6000620012a58582860162001102565b925050602083013567ffffffffffffffff811115620012c957620012c8620010d9565b5b620012d78582860162001248565b9150509250929050565b60008115159050919050565b620012f881620012e1565b82525050565b6000602082019050620013156000830184620012ed565b92915050565b600073ffffffffffffffffffffffffffffffffffffffff82169050919050565b6000819050919050565b600062001366620013606200135a846200131b565b6200133b565b6200131b565b9050919050565b60006200137a8262001345565b9050919050565b60006200138e826200136d565b9050919050565b620013a08162001381565b82525050565b6000602082019050620013bd600083018462001395565b92915050565b6000620013d0826200136d565b9050919050565b620013e281620013c3565b82525050565b6000602082019050620013ff6000830184620013d7565b92915050565b600062001412826200131b565b9050919050565b620014248162001405565b81146200143057600080fd5b50565b600081359050620014448162001419565b92915050565b600060208284031215620014635762001462620010d4565b5b6000620014738482850162001433565b91505092915050565b620014878162001405565b82525050565b6000602082019050620014a460008301846200147c565b92915050565b600060208284031215620014c357620014c2620010d4565b5b600082013567ffffffffffffffff811115620014e457620014e3620010d9565b5b620014f28482850162001248565b91505092915050565b600081519050919050565b600082825260208201905092915050565b60005b83811015620015375780820151818401526020810190506200151a565b60008484015250505050565b60006200155082620014fb565b6200155c818562001506565b93506200156e81856020860162001517565b620015798162001123565b840191505092915050565b60006020820190508181036000830152620015a0818462001543565b905092915050565b6000620015b5826200136d565b9050919050565b620015c781620015a8565b82525050565b6000602082019050620015e46000830184620015bc565b92915050565b600067ffffffffffffffff82111562001608576200160762001134565b5b602082029050602081019050919050565b600080fd5b6000815190506200162f8162001419565b92915050565b60006200164c6200164684620015ea565b62001199565b9050808382526020820190506020840283018581111562001672576200167162001619565b5b835b818110156200169f57806200168a88826200161e565b84526020840193505060208101905062001674565b5050509392505050565b600082601f830112620016c157620016c062001119565b5b8151620016d384826020860162001635565b91505092915050565b600060208284031215620016f557620016f4620010d4565b5b600082015167ffffffffffffffff811115620017165762001715620010d9565b5b6200172484828501620016a9565b91505092915050565b7f4e487b7100000000000000000000000000000000000000000000000000000000600052603260045260246000fd5b7f4e487b7100000000000000000000000000000000000000000000000000000000600052601160045260246000fd5b60006200179882620010de565b91507fffffffffffffffffffffffffffffffffffffffffffffffffffffffffffffffff8203620017cd57620017cc6200175c565b5b600182019050919050565b7f43616c6c65722073686f756c6420626520616e2061756469746f720000000000600082015250565b600062001810601b8362001506565b91506200181d82620017d8565b602082019050919050565b60006020820190508181036000830152620018438162001801565b9050919050565b6200185581620010de565b82525050565b60006020820190506200187260008301846200184a565b92915050565b600060208284031215620018915762001890620010d4565b5b6000620018a1848285016200161e565b91505092915050565b7f43616c6c6572206d75737420626520616e2061756469746f7200000000000000600082015250565b6000620018e260198362001506565b9150620018ef82620018aa565b602082019050919050565b600060208201905081810360008301526200191581620018d3565b9050919050565b600080fd5b600080fd5b6000815190506200193781620010e8565b92915050565b6000620019546200194e84620011b8565b62001199565b9050828152602081018484840111156200197357620019726200111e565b5b6200198084828562001517565b509392505050565b600082601f830112620019a0576200199f62001119565b5b8151620019b28482602086016200193d565b91505092915050565b600060a08284031215620019d457620019d36200191c565b5b620019e060a062001199565b90506000620019f28482850162001926565b600083015250602062001a088482850162001926565b602083015250604062001a1e8482850162001926565b604083015250606062001a348482850162001926565b606083015250608082015167ffffffffffffffff81111562001a5b5762001a5a62001921565b5b62001a698482850162001988565b60808301525092915050565b60006020828403121562001a8e5762001a8d620010d4565b5b600082015167ffffffffffffffff81111562001aaf5762001aae620010d9565b5b62001abd84828501620019bb565b91505092915050565b600060808201905062001add60008301876200184a565b62001aec60208301866200184a565b62001afb60408301856200184a565b818103606083015262001b0f818462001543565b905095945050505050565b7f4f776e61626c653a206e6577206f776e657220697320746865207a65726f206160008201527f6464726573730000000000000000000000000000000000000000000000000000602082015250565b600062001b7860268362001506565b915062001b858262001b1a565b604082019050919050565b6000602082019050818103600083015262001bab8162001b69565b9050919050565b60006060828403121562001bcb5762001bca6200191c565b5b62001bd7606062001199565b9050600062001be9848285016200161e565b600083015250602082015167ffffffffffffffff81111562001c105762001c0f62001921565b5b62001c1e8482850162001988565b602083015250604062001c348482850162001926565b60408301525092915050565b60006020828403121562001c595762001c58620010d4565b5b600082015167ffffffffffffffff81111562001c7a5762001c79620010d9565b5b62001c888482850162001bb2565b91505092915050565b600060808201905062001ca860008301876200147c565b818103602083015262001cbc818662001543565b9050818103604083015262001cd2818562001543565b9050818103606083015262001ce8818462001543565b905095945050505050565b600062001d00826200136d565b9050919050565b62001d128162001cf3565b82525050565b600060808201905062001d2f60008301876200184a565b62001d3e60208301866200184a565b62001d4d604083018562001d07565b62001d5c60608301846200184a565b95945050505050565b600060408201905062001d7c60008301856200147c565b62001d8b60208301846200184a565b9392505050565b62001d9d81620012e1565b811462001da957600080fd5b50565b60008151905062001dbd8162001d92565b92915050565b60006020828403121562001ddc5762001ddb620010d4565b5b600062001dec8482850162001dac565b91505092915050565b7f4f776e61626c653a2063616c6c6572206973206e6f7420746865206f776e6572600082015250565b600062001e2d60208362001506565b915062001e3a8262001df5565b602082019050919050565b6000602082019050818103600083015262001e608162001e1e565b9050919050565b600062001e7482620010de565b915062001e8183620010de565b925082820190508082111562001e9c5762001e9b6200175c565b5b9291505056fe60806040523480156200001157600080fd5b50604051620038eb380380620038eb833981810160405281019062000037919062000694565b828281600090816200004a9190620009ae565b5080600190816200005c9190620009ae565b5050506200007184826200007c60201b60201c565b505050505062000d07565b6000806200008f620000da60201b60201c565b905060076000815480929190620000a69062000ac4565b9190505550620000bd8482620000f960201b60201c565b620000cf81846200033f60201b60201c565b600191505092915050565b6000620000f46001600754620003f260201b90919060201c565b905090565b600073ffffffffffffffffffffffffffffffffffffffff168273ffffffffffffffffffffffffffffffffffffffff16036200016b576040517f08c379a0000000000000000000000000000000000000000000000000000000008152600401620001629062000b72565b60405180910390fd5b6200017c816200040a60201b60201c565b15620001bf576040517f08c379a0000000000000000000000000000000000000000000000000000000008152600401620001b69062000be4565b60405180910390fd5b620001d56000838360016200045360201b60201c565b620001e6816200040a60201b60201c565b1562000229576040517f08c379a0000000000000000000000000000000000000000000000000000000008152600401620002209062000be4565b60405180910390fd5b6001600360008473ffffffffffffffffffffffffffffffffffffffff1673ffffffffffffffffffffffffffffffffffffffff16815260200190815260200160002060008282540192505081905550816002600083815260200190815260200160002060006101000a81548173ffffffffffffffffffffffffffffffffffffffff021916908373ffffffffffffffffffffffffffffffffffffffff160217905550808273ffffffffffffffffffffffffffffffffffffffff16600073ffffffffffffffffffffffffffffffffffffffff167fddf252ad1be2c89b69c2b068fc378daa952ba7f163c4a11628f55a4df523b3ef60405160405180910390a46200033b6000838360016200045960201b60201c565b5050565b62000350826200040a60201b60201c565b62000392576040517f08c379a0000000000000000000000000000000000000000000000000000000008152600401620003899062000c7c565b60405180910390fd5b80600660008481526020019081526020016000209081620003b49190620009ae565b507ff8e1a15aba9398e019f0b49df1a4fde98ee17ae345cb5f6b5e2c27f5033e8ce782604051620003e6919062000caf565b60405180910390a15050565b6000818362000402919062000ccc565b905092915050565b60008073ffffffffffffffffffffffffffffffffffffffff1662000434836200045f60201b60201c565b73ffffffffffffffffffffffffffffffffffffffff1614159050919050565b50505050565b50505050565b60006002600083815260200190815260200160002060009054906101000a900473ffffffffffffffffffffffffffffffffffffffff169050919050565b6000604051905090565b600080fd5b600080fd5b600073ffffffffffffffffffffffffffffffffffffffff82169050919050565b6000620004dd82620004b0565b9050919050565b620004ef81620004d0565b8114620004fb57600080fd5b50565b6000815190506200050f81620004e4565b92915050565b600080fd5b600080fd5b6000601f19601f8301169050919050565b7f4e487b7100000000000000000000000000000000000000000000000000000000600052604160045260246000fd5b6200056a826200051f565b810181811067ffffffffffffffff821117156200058c576200058b62000530565b5b80604052505050565b6000620005a16200049c565b9050620005af82826200055f565b919050565b600067ffffffffffffffff821115620005d257620005d162000530565b5b620005dd826200051f565b9050602081019050919050565b60005b838110156200060a578082015181840152602081019050620005ed565b60008484015250505050565b60006200062d6200062784620005b4565b62000595565b9050828152602081018484840111156200064c576200064b6200051a565b5b62000659848285620005ea565b509392505050565b600082601f83011262000679576200067862000515565b5b81516200068b84826020860162000616565b91505092915050565b60008060008060808587031215620006b157620006b0620004a6565b5b6000620006c187828801620004fe565b945050602085015167ffffffffffffffff811115620006e557620006e4620004ab565b5b620006f38782880162000661565b935050604085015167ffffffffffffffff811115620007175762000716620004ab565b5b620007258782880162000661565b925050606085015167ffffffffffffffff811115620007495762000748620004ab565b5b620007578782880162000661565b91505092959194509250565b600081519050919050565b7f4e487b7100000000000000000000000000000000000000000000000000000000600052602260045260246000fd5b60006002820490506001821680620007b657607f821691505b602082108103620007cc57620007cb6200076e565b5b50919050565b60008190508160005260206000209050919050565b60006020601f8301049050919050565b600082821b905092915050565b600060088302620008367fffffffffffffffffffffffffffffffffffffffffffffffffffffffffffffffff82620007f7565b620008428683620007f7565b95508019841693508086168417925050509392505050565b6000819050919050565b6000819050919050565b60006200088f6200088962000883846200085a565b62000864565b6200085a565b9050919050565b6000819050919050565b620008ab836200086e565b620008c3620008ba8262000896565b84845462000804565b825550505050565b600090565b620008da620008cb565b620008e7818484620008a0565b505050565b5b818110156200090f5762000903600082620008d0565b600181019050620008ed565b5050565b601f8211156200095e576200092881620007d2565b6200093384620007e7565b8101602085101562000943578190505b6200095b6200095285620007e7565b830182620008ec565b50505b505050565b600082821c905092915050565b6000620009836000198460080262000963565b1980831691505092915050565b60006200099e838362000970565b9150826002028217905092915050565b620009b98262000763565b67ffffffffffffffff811115620009d557620009d462000530565b5b620009e182546200079d565b620009ee82828562000913565b600060209050601f83116001811462000a26576000841562000a11578287015190505b62000a1d858262000990565b86555062000a8d565b601f19841662000a3686620007d2565b60005b8281101562000a605784890151825560018201915060208501945060208101905062000a39565b8683101562000a80578489015162000a7c601f89168262000970565b8355505b6001600288020188555050505b505050505050565b7f4e487b7100000000000000000000000000000000000000000000000000000000600052601160045260246000fd5b600062000ad1826200085a565b91507fffffffffffffffffffffffffffffffffffffffffffffffffffffffffffffffff820362000b065762000b0562000a95565b5b600182019050919050565b600082825260208201905092915050565b7f4552433732313a206d696e7420746f20746865207a65726f2061646472657373600082015250565b600062000b5a60208362000b11565b915062000b678262000b22565b602082019050919050565b6000602082019050818103600083015262000b8d8162000b4b565b9050919050565b7f4552433732313a20746f6b656e20616c7265616479206d696e74656400000000600082015250565b600062000bcc601c8362000b11565b915062000bd98262000b94565b602082019050919050565b6000602082019050818103600083015262000bff8162000bbd565b9050919050565b7f45524337323155524953746f726167653a2055524920736574206f66206e6f6e60008201527f6578697374656e7420746f6b656e000000000000000000000000000000000000602082015250565b600062000c64602e8362000b11565b915062000c718262000c06565b604082019050919050565b6000602082019050818103600083015262000c978162000c55565b9050919050565b62000ca9816200085a565b82525050565b600060208201905062000cc6600083018462000c9e565b92915050565b600062000cd9826200085a565b915062000ce6836200085a565b925082820190508082111562000d015762000d0062000a95565b5b92915050565b612bd48062000d176000396000f3fe608060405234801561001057600080fd5b50600436106100f45760003560e01c80636352211e11610097578063b88d4fde11610066578063b88d4fde14610283578063c87b56dd1461029f578063d0def521146102cf578063e985e9c5146102ff576100f4565b80636352211e146101e957806370a082311461021957806395d89b4114610249578063a22cb46514610267576100f4565b8063081812fc116100d3578063081812fc14610165578063095ea7b31461019557806323b872dd146101b157806342842e0e146101cd576100f4565b80629a9b7b146100f957806301ffc9a71461011757806306fdde0314610147575b600080fd5b61010161032f565b60405161010e91906119c5565b60405180910390f35b610131600480360381019061012c9190611a4c565b610335565b60405161013e9190611a94565b60405180910390f35b61014f610396565b60405161015c9190611b3f565b60405180910390f35b61017f600480360381019061017a9190611b8d565b610428565b60405161018c9190611bfb565b60405180910390f35b6101af60048036038101906101aa9190611c42565b61046e565b005b6101cb60048036038101906101c69190611c82565b610585565b005b6101e760048036038101906101e29190611c82565b6105e5565b005b61020360048036038101906101fe9190611b8d565b610605565b6040516102109190611bfb565b60405180910390f35b610233600480360381019061022e9190611cd5565b61068b565b60405161024091906119c5565b60405180910390f35b610251610742565b60405161025e9190611b3f565b60405180910390f35b610281600480360381019061027c9190611d2e565b6107d4565b005b61029d60048036038101906102989190611ea3565b6107ea565b005b6102b960048036038101906102b49190611b8d565b61084c565b6040516102c69190611b3f565b60405180910390f35b6102e960048036038101906102e49190611fc7565b61095e565b6040516102f69190611a94565b60405180910390f35b61031960048036038101906103149190612023565b6109a2565b6040516103269190611a94565b60405180910390f35b60075481565b6000634906490660e01b7bffffffffffffffffffffffffffffffffffffffffffffffffffffffff1916827bffffffffffffffffffffffffffffffffffffffffffffffffffffffff1916148061038f575061038e82610a36565b5b9050919050565b6060600080546103a590612092565b80601f01602080910402602001604051908101604052809291908181526020018280546103d190612092565b801561041e5780601f106103f35761010080835404028352916020019161041e565b820191906000526020600020905b81548152906001019060200180831161040157829003601f168201915b5050505050905090565b600061043382610b18565b6004600083815260200190815260200160002060009054906101000a900473ffffffffffffffffffffffffffffffffffffffff169050919050565b600061047982610605565b90508073ffffffffffffffffffffffffffffffffffffffff168373ffffffffffffffffffffffffffffffffffffffff16036104e9576040517f08c379a00000000000000000000000000000000000000000000000000000000081526004016104e090612135565b60405180910390fd5b8073ffffffffffffffffffffffffffffffffffffffff16610508610b63565b73ffffffffffffffffffffffffffffffffffffffff161480610537575061053681610531610b63565b6109a2565b5b610576576040517f08c379a000000000000000000000000000000000000000000000000000000000815260040161056d906121c7565b60405180910390fd5b6105808383610b6b565b505050565b610596610590610b63565b82610c24565b6105d5576040517f08c379a00000000000000000000000000000000000000000000000000000000081526004016105cc90612259565b60405180910390fd5b6105e0838383610cb9565b505050565b610600838383604051806020016040528060008152506107ea565b505050565b60008061061183610fb2565b9050600073ffffffffffffffffffffffffffffffffffffffff168173ffffffffffffffffffffffffffffffffffffffff1603610682576040517f08c379a0000000000000000000000000000000000000000000000000000000008152600401610679906122c5565b60405180910390fd5b80915050919050565b60008073ffffffffffffffffffffffffffffffffffffffff168273ffffffffffffffffffffffffffffffffffffffff16036106fb576040517f08c379a00000000000000000000000000000000000000000000000000000000081526004016106f290612357565b60405180910390fd5b600360008373ffffffffffffffffffffffffffffffffffffffff1673ffffffffffffffffffffffffffffffffffffffff168152602001908152602001600020549050919050565b60606001805461075190612092565b80601f016020809104026020016040519081016040528092919081815260200182805461077d90612092565b80156107ca5780601f1061079f576101008083540402835291602001916107ca565b820191906000526020600020905b8154815290600101906020018083116107ad57829003601f168201915b5050505050905090565b6107e66107df610b63565b8383610fef565b5050565b6107fb6107f5610b63565b83610c24565b61083a576040517f08c379a000000000000000000000000000000000000000000000000000000000815260040161083190612259565b60405180910390fd5b6108468484848461115b565b50505050565b606061085782610b18565b600060066000848152602001908152602001600020805461087790612092565b80601f01602080910402602001604051908101604052809291908181526020018280546108a390612092565b80156108f05780601f106108c5576101008083540402835291602001916108f0565b820191906000526020600020905b8154815290600101906020018083116108d357829003601f168201915b5050505050905060006109016111b7565b90506000815103610916578192505050610959565b60008251111561094b5780826040516020016109339291906123b3565b60405160208183030381529060405292505050610959565b610954846111ce565b925050505b919050565b600080610969611236565b90506007600081548092919061097e90612406565b919050555061098d8482611253565b6109978184611470565b600191505092915050565b6000600560008473ffffffffffffffffffffffffffffffffffffffff1673ffffffffffffffffffffffffffffffffffffffff16815260200190815260200160002060008373ffffffffffffffffffffffffffffffffffffffff1673ffffffffffffffffffffffffffffffffffffffff16815260200190815260200160002060009054906101000a900460ff16905092915050565b60007f80ac58cd000000000000000000000000000000000000000000000000000000007bffffffffffffffffffffffffffffffffffffffffffffffffffffffff1916827bffffffffffffffffffffffffffffffffffffffffffffffffffffffff19161480610b0157507f5b5e139f000000000000000000000000000000000000000000000000000000007bffffffffffffffffffffffffffffffffffffffffffffffffffffffff1916827bffffffffffffffffffffffffffffffffffffffffffffffffffffffff1916145b80610b115750610b1082611514565b5b9050919050565b610b218161157e565b610b60576040517f08c379a0000000000000000000000000000000000000000000000000000000008152600401610b57906122c5565b60405180910390fd5b50565b600033905090565b816004600083815260200190815260200160002060006101000a81548173ffffffffffffffffffffffffffffffffffffffff021916908373ffffffffffffffffffffffffffffffffffffffff160217905550808273ffffffffffffffffffffffffffffffffffffffff16610bde83610605565b73ffffffffffffffffffffffffffffffffffffffff167f8c5be1e5ebec7d5bd14f71427d1e84f3dd0314c0f7b2291e5b200ac8c7c3b92560405160405180910390a45050565b600080610c3083610605565b90508073ffffffffffffffffffffffffffffffffffffffff168473ffffffffffffffffffffffffffffffffffffffff161480610c725750610c7181856109a2565b5b80610cb057508373ffffffffffffffffffffffffffffffffffffffff16610c9884610428565b73ffffffffffffffffffffffffffffffffffffffff16145b91505092915050565b8273ffffffffffffffffffffffffffffffffffffffff16610cd982610605565b73ffffffffffffffffffffffffffffffffffffffff1614610d2f576040517f08c379a0000000000000000000000000000000000000000000000000000000008152600401610d26906124c0565b60405180910390fd5b600073ffffffffffffffffffffffffffffffffffffffff168273ffffffffffffffffffffffffffffffffffffffff1603610d9e576040517f08c379a0000000000000000000000000000000000000000000000000000000008152600401610d9590612552565b60405180910390fd5b610dab83838360016115bf565b8273ffffffffffffffffffffffffffffffffffffffff16610dcb82610605565b73ffffffffffffffffffffffffffffffffffffffff1614610e21576040517f08c379a0000000000000000000000000000000000000000000000000000000008152600401610e18906124c0565b60405180910390fd5b6004600082815260200190815260200160002060006101000a81549073ffffffffffffffffffffffffffffffffffffffff02191690556001600360008573ffffffffffffffffffffffffffffffffffffffff1673ffffffffffffffffffffffffffffffffffffffff168152602001908152602001600020600082825403925050819055506001600360008473ffffffffffffffffffffffffffffffffffffffff1673ffffffffffffffffffffffffffffffffffffffff16815260200190815260200160002060008282540192505081905550816002600083815260200190815260200160002060006101000a81548173ffffffffffffffffffffffffffffffffffffffff021916908373ffffffffffffffffffffffffffffffffffffffff160217905550808273ffffffffffffffffffffffffffffffffffffffff168473ffffffffffffffffffffffffffffffffffffffff167fddf252ad1be2c89b69c2b068fc378daa952ba7f163c4a11628f55a4df523b3ef60405160405180910390a4610fad83838360016115c5565b505050565b60006002600083815260200190815260200160002060009054906101000a900473ffffffffffffffffffffffffffffffffffffffff169050919050565b8173ffffffffffffffffffffffffffffffffffffffff168373ffffffffffffffffffffffffffffffffffffffff160361105d576040517f08c379a0000000000000000000000000000000000000000000000000000000008152600401611054906125be565b60405180910390fd5b80600560008573ffffffffffffffffffffffffffffffffffffffff1673ffffffffffffffffffffffffffffffffffffffff16815260200190815260200160002060008473ffffffffffffffffffffffffffffffffffffffff1673ffffffffffffffffffffffffffffffffffffffff16815260200190815260200160002060006101000a81548160ff0219169083151502179055508173ffffffffffffffffffffffffffffffffffffffff168373ffffffffffffffffffffffffffffffffffffffff167f17307eab39ab6107e8899845ad3d59bd9653f200f220920489ca2b5937696c318360405161114e9190611a94565b60405180910390a3505050565b611166848484610cb9565b611172848484846115cb565b6111b1576040517f08c379a00000000000000000000000000000000000000000000000000000000081526004016111a890612650565b60405180910390fd5b50505050565b606060405180602001604052806000815250905090565b60606111d982610b18565b60006111e36111b7565b90506000815111611203576040518060200160405280600081525061122e565b8061120d84611752565b60405160200161121e9291906123b3565b6040516020818303038152906040525b915050919050565b600061124e600160075461182090919063ffffffff16565b905090565b600073ffffffffffffffffffffffffffffffffffffffff168273ffffffffffffffffffffffffffffffffffffffff16036112c2576040517f08c379a00000000000000000000000000000000000000000000000000000000081526004016112b9906126bc565b60405180910390fd5b6112cb8161157e565b1561130b576040517f08c379a000000000000000000000000000000000000000000000000000000000815260040161130290612728565b60405180910390fd5b6113196000838360016115bf565b6113228161157e565b15611362576040517f08c379a000000000000000000000000000000000000000000000000000000000815260040161135990612728565b60405180910390fd5b6001600360008473ffffffffffffffffffffffffffffffffffffffff1673ffffffffffffffffffffffffffffffffffffffff16815260200190815260200160002060008282540192505081905550816002600083815260200190815260200160002060006101000a81548173ffffffffffffffffffffffffffffffffffffffff021916908373ffffffffffffffffffffffffffffffffffffffff160217905550808273ffffffffffffffffffffffffffffffffffffffff16600073ffffffffffffffffffffffffffffffffffffffff167fddf252ad1be2c89b69c2b068fc378daa952ba7f163c4a11628f55a4df523b3ef60405160405180910390a461146c6000838360016115c5565b5050565b6114798261157e565b6114b8576040517f08c379a00000000000000000000000000000000000000000000000000000000081526004016114af906127ba565b60405180910390fd5b806006600084815260200190815260200160002090816114d89190612986565b507ff8e1a15aba9398e019f0b49df1a4fde98ee17ae345cb5f6b5e2c27f5033e8ce78260405161150891906119c5565b60405180910390a15050565b60007f01ffc9a7000000000000000000000000000000000000000000000000000000007bffffffffffffffffffffffffffffffffffffffffffffffffffffffff1916827bffffffffffffffffffffffffffffffffffffffffffffffffffffffff1916149050919050565b60008073ffffffffffffffffffffffffffffffffffffffff166115a083610fb2565b73ffffffffffffffffffffffffffffffffffffffff1614159050919050565b50505050565b50505050565b60006115ec8473ffffffffffffffffffffffffffffffffffffffff16611836565b15611745578373ffffffffffffffffffffffffffffffffffffffff1663150b7a02611615610b63565b8786866040518563ffffffff1660e01b81526004016116379493929190612aad565b6020604051808303816000875af192505050801561167357506040513d601f19601f820116820180604052508101906116709190612b0e565b60015b6116f5573d80600081146116a3576040519150601f19603f3d011682016040523d82523d6000602084013e6116a8565b606091505b5060008151036116ed576040517f08c379a00000000000000000000000000000000000000000000000000000000081526004016116e490612650565b60405180910390fd5b805181602001fd5b63150b7a0260e01b7bffffffffffffffffffffffffffffffffffffffffffffffffffffffff1916817bffffffffffffffffffffffffffffffffffffffffffffffffffffffff19161491505061174a565b600190505b949350505050565b60606000600161176184611859565b01905060008167ffffffffffffffff8111156117805761177f611d78565b5b6040519080825280601f01601f1916602001820160405280156117b25781602001600182028036833780820191505090505b509050600082602001820190505b600115611815578080600190039150507f3031323334353637383961626364656600000000000000000000000000000000600a86061a8153600a858161180957611808612b3b565b5b049450600085036117c0575b819350505050919050565b6000818361182e9190612b6a565b905092915050565b6000808273ffffffffffffffffffffffffffffffffffffffff163b119050919050565b600080600090507a184f03e93ff9f4daa797ed6e38ed64bf6a1f01000000000000000083106118b7577a184f03e93ff9f4daa797ed6e38ed64bf6a1f01000000000000000083816118ad576118ac612b3b565b5b0492506040810190505b6d04ee2d6d415b85acef810000000083106118f4576d04ee2d6d415b85acef810000000083816118ea576118e9612b3b565b5b0492506020810190505b662386f26fc10000831061192357662386f26fc10000838161191957611918612b3b565b5b0492506010810190505b6305f5e100831061194c576305f5e100838161194257611941612b3b565b5b0492506008810190505b612710831061197157612710838161196757611966612b3b565b5b0492506004810190505b60648310611994576064838161198a57611989612b3b565b5b0492506002810190505b600a83106119a3576001810190505b80915050919050565b6000819050919050565b6119bf816119ac565b82525050565b60006020820190506119da60008301846119b6565b92915050565b6000604051905090565b600080fd5b600080fd5b60007fffffffff0000000000000000000000000000000000000000000000000000000082169050919050565b611a29816119f4565b8114611a3457600080fd5b50565b600081359050611a4681611a20565b92915050565b600060208284031215611a6257611a616119ea565b5b6000611a7084828501611a37565b91505092915050565b60008115159050919050565b611a8e81611a79565b82525050565b6000602082019050611aa96000830184611a85565b92915050565b600081519050919050565b600082825260208201905092915050565b60005b83811015611ae9578082015181840152602081019050611ace565b60008484015250505050565b6000601f19601f8301169050919050565b6000611b1182611aaf565b611b1b8185611aba565b9350611b2b818560208601611acb565b611b3481611af5565b840191505092915050565b60006020820190508181036000830152611b598184611b06565b905092915050565b611b6a816119ac565b8114611b7557600080fd5b50565b600081359050611b8781611b61565b92915050565b600060208284031215611ba357611ba26119ea565b5b6000611bb184828501611b78565b91505092915050565b600073ffffffffffffffffffffffffffffffffffffffff82169050919050565b6000611be582611bba565b9050919050565b611bf581611bda565b82525050565b6000602082019050611c106000830184611bec565b92915050565b611c1f81611bda565b8114611c2a57600080fd5b50565b600081359050611c3c81611c16565b92915050565b60008060408385031215611c5957611c586119ea565b5b6000611c6785828601611c2d565b9250506020611c7885828601611b78565b9150509250929050565b600080600060608486031215611c9b57611c9a6119ea565b5b6000611ca986828701611c2d565b9350506020611cba86828701611c2d565b9250506040611ccb86828701611b78565b9150509250925092565b600060208284031215611ceb57611cea6119ea565b5b6000611cf984828501611c2d565b91505092915050565b611d0b81611a79565b8114611d1657600080fd5b50565b600081359050611d2881611d02565b92915050565b60008060408385031215611d4557611d446119ea565b5b6000611d5385828601611c2d565b9250506020611d6485828601611d19565b9150509250929050565b600080fd5b600080fd5b7f4e487b7100000000000000000000000000000000000000000000000000000000600052604160045260246000fd5b611db082611af5565b810181811067ffffffffffffffff82111715611dcf57611dce611d78565b5b80604052505050565b6000611de26119e0565b9050611dee8282611da7565b919050565b600067ffffffffffffffff821115611e0e57611e0d611d78565b5b611e1782611af5565b9050602081019050919050565b82818337600083830152505050565b6000611e46611e4184611df3565b611dd8565b905082815260208101848484011115611e6257611e61611d73565b5b611e6d848285611e24565b509392505050565b600082601f830112611e8a57611e89611d6e565b5b8135611e9a848260208601611e33565b91505092915050565b60008060008060808587031215611ebd57611ebc6119ea565b5b6000611ecb87828801611c2d565b9450506020611edc87828801611c2d565b9350506040611eed87828801611b78565b925050606085013567ffffffffffffffff811115611f0e57611f0d6119ef565b5b611f1a87828801611e75565b91505092959194509250565b600067ffffffffffffffff821115611f4157611f40611d78565b5b611f4a82611af5565b9050602081019050919050565b6000611f6a611f6584611f26565b611dd8565b905082815260208101848484011115611f8657611f85611d73565b5b611f91848285611e24565b509392505050565b600082601f830112611fae57611fad611d6e565b5b8135611fbe848260208601611f57565b91505092915050565b60008060408385031215611fde57611fdd6119ea565b5b6000611fec85828601611c2d565b925050602083013567ffffffffffffffff81111561200d5761200c6119ef565b5b61201985828601611f99565b9150509250929050565b6000806040838503121561203a576120396119ea565b5b600061204885828601611c2d565b925050602061205985828601611c2d565b9150509250929050565b7f4e487b7100000000000000000000000000000000000000000000000000000000600052602260045260246000fd5b600060028204905060018216806120aa57607f821691505b6020821081036120bd576120bc612063565b5b50919050565b7f4552433732313a20617070726f76616c20746f2063757272656e74206f776e6560008201527f7200000000000000000000000000000000000000000000000000000000000000602082015250565b600061211f602183611aba565b915061212a826120c3565b604082019050919050565b6000602082019050818103600083015261214e81612112565b9050919050565b7f4552433732313a20617070726f76652063616c6c6572206973206e6f7420746f60008201527f6b656e206f776e6572206f7220617070726f76656420666f7220616c6c000000602082015250565b60006121b1603d83611aba565b91506121bc82612155565b604082019050919050565b600060208201905081810360008301526121e0816121a4565b9050919050565b7f4552433732313a2063616c6c6572206973206e6f7420746f6b656e206f776e6560008201527f72206f7220617070726f76656400000000000000000000000000000000000000602082015250565b6000612243602d83611aba565b915061224e826121e7565b604082019050919050565b6000602082019050818103600083015261227281612236565b9050919050565b7f4552433732313a20696e76616c696420746f6b656e2049440000000000000000600082015250565b60006122af601883611aba565b91506122ba82612279565b602082019050919050565b600060208201905081810360008301526122de816122a2565b9050919050565b7f4552433732313a2061646472657373207a65726f206973206e6f74206120766160008201527f6c6964206f776e65720000000000000000000000000000000000000000000000602082015250565b6000612341602983611aba565b915061234c826122e5565b604082019050919050565b6000602082019050818103600083015261237081612334565b9050919050565b600081905092915050565b600061238d82611aaf565b6123978185612377565b93506123a7818560208601611acb565b80840191505092915050565b60006123bf8285612382565b91506123cb8284612382565b91508190509392505050565b7f4e487b7100000000000000000000000000000000000000000000000000000000600052601160045260246000fd5b6000612411826119ac565b91507fffffffffffffffffffffffffffffffffffffffffffffffffffffffffffffffff8203612443576124426123d7565b5b600182019050919050565b7f4552433732313a207472616e736665722066726f6d20696e636f72726563742060008201527f6f776e6572000000000000000000000000000000000000000000000000000000602082015250565b60006124aa602583611aba565b91506124b58261244e565b604082019050919050565b600060208201905081810360008301526124d98161249d565b9050919050565b7f4552433732313a207472616e7366657220746f20746865207a65726f2061646460008201527f7265737300000000000000000000000000000000000000000000000000000000602082015250565b600061253c602483611aba565b9150612547826124e0565b604082019050919050565b6000602082019050818103600083015261256b8161252f565b9050919050565b7f4552433732313a20617070726f766520746f2063616c6c657200000000000000600082015250565b60006125a8601983611aba565b91506125b382612572565b602082019050919050565b600060208201905081810360008301526125d78161259b565b9050919050565b7f4552433732313a207472616e7366657220746f206e6f6e20455243373231526560008201527f63656976657220696d706c656d656e7465720000000000000000000000000000602082015250565b600061263a603283611aba565b9150612645826125de565b604082019050919050565b600060208201905081810360008301526126698161262d565b9050919050565b7f4552433732313a206d696e7420746f20746865207a65726f2061646472657373600082015250565b60006126a6602083611aba565b91506126b182612670565b602082019050919050565b600060208201905081810360008301526126d581612699565b9050919050565b7f4552433732313a20746f6b656e20616c7265616479206d696e74656400000000600082015250565b6000612712601c83611aba565b915061271d826126dc565b602082019050919050565b6000602082019050818103600083015261274181612705565b9050919050565b7f45524337323155524953746f726167653a2055524920736574206f66206e6f6e60008201527f6578697374656e7420746f6b656e000000000000000000000000000000000000602082015250565b60006127a4602e83611aba565b91506127af82612748565b604082019050919050565b600060208201905081810360008301526127d381612797565b9050919050565b60008190508160005260206000209050919050565b60006020601f8301049050919050565b600082821b905092915050565b60006008830261283c7fffffffffffffffffffffffffffffffffffffffffffffffffffffffffffffffff826127ff565b61284686836127ff565b95508019841693508086168417925050509392505050565b6000819050919050565b600061288361287e612879846119ac565b61285e565b6119ac565b9050919050565b6000819050919050565b61289d83612868565b6128b16128a98261288a565b84845461280c565b825550505050565b600090565b6128c66128b9565b6128d1818484612894565b505050565b5b818110156128f5576128ea6000826128be565b6001810190506128d7565b5050565b601f82111561293a5761290b816127da565b612914846127ef565b81016020851015612923578190505b61293761292f856127ef565b8301826128d6565b50505b505050565b600082821c905092915050565b600061295d6000198460080261293f565b1980831691505092915050565b6000612976838361294c565b9150826002028217905092915050565b61298f82611aaf565b67ffffffffffffffff8111156129a8576129a7611d78565b5b6129b28254612092565b6129bd8282856128f9565b600060209050601f8311600181146129f057600084156129de578287015190505b6129e8858261296a565b865550612a50565b601f1984166129fe866127da565b60005b82811015612a2657848901518255600182019150602085019450602081019050612a01565b86831015612a435784890151612a3f601f89168261294c565b8355505b6001600288020188555050505b505050505050565b600081519050919050565b600082825260208201905092915050565b6000612a7f82612a58565b612a898185612a63565b9350612a99818560208601611acb565b612aa281611af5565b840191505092915050565b6000608082019050612ac26000830187611bec565b612acf6020830186611bec565b612adc60408301856119b6565b8181036060830152612aee8184612a74565b905095945050505050565b600081519050612b0881611a20565b92915050565b600060208284031215612b2457612b236119ea565b5b6000612b3284828501612af9565b91505092915050565b7f4e487b7100000000000000000000000000000000000000000000000000000000600052601260045260246000fd5b6000612b75826119ac565b9150612b80836119ac565b9250828201905080821115612b9857612b976123d7565b5b9291505056fea26469706673582212206fcb76e73d112b814c42a92cc8732d82a560626037c2d18196c976a0cdc1069c64736f6c63430008130033a2646970667358221220077fc04e2b593c0d695ee4eaad67c6be81d55d1e0447ca72233e63c395fe19ed64736f6c63430008130033",
  "immutableReferences": {},
  "source": "// SPDX-License-Identifier: MIT\n\npragma solidity ^0.8.0;\n\npragma experimental ABIEncoderV2;\nimport \"@openzeppelin/contracts/access/Ownable.sol\";\n\n//import { Ownable } from \"@openzeppelin/contracts/access/Ownable.sol\";\n\nimport { SafeMath } from \"@openzeppelin/contracts/utils/math/SafeMath.sol\";\n\nimport { Strings } from \"./libraries/Strings.sol\";\n\nimport { GreenNFT } from \"./GreenNFT.sol\";\nimport { GreenNFTMarketPlace } from \"./GreenNFTMarketPlace.sol\";\nimport { GreenNFTData } from \"./GreenNFTData.sol\";\nimport { AllGreenCoin } from \"./AllGreenCoin.sol\";\n\ncontract GreenNFTFactory2 is Ownable {\n     using SafeMath for uint256;\n    using Strings for string;\n\n    address GREEN_NFT_MARKETPLACE;\n\n    mapping(address => bool) public isAuditor;\n\n    GreenNFTMarketPlace public greenNFTMarketPlace;\n    GreenNFTData public greenNFTData;\n    AllGreenCoin public allGreenCoin;\n\n    constructor(\n        GreenNFTMarketPlace _greenNFTMarketPlace, \n        GreenNFTData _greenNFTData, \n        AllGreenCoin _allGreenCoin\n    ) public {\n        greenNFTMarketPlace = _greenNFTMarketPlace;\n        greenNFTData = _greenNFTData;\n        allGreenCoin = _allGreenCoin;\n\n        GREEN_NFT_MARKETPLACE = address(greenNFTMarketPlace);\n    }\n\n      /**\n     * @notice - Throws if called by account without auditors\n     */\n    modifier onlyAuditor() {\n        address auditor;\n        \n        address[] memory auditors = greenNFTData.getAuditors();\n        for (uint i=0; i < auditors.length; i++) {\n            auditor = auditors[i];\n        }\n\n        require(isAuditor[msg.sender], \"Caller should be an auditor\");\n        //require(msg.sender == auditor, \"Caller should be the auditor\");\n        _;\n    }\n\n     event ClaimAudited(uint256 _projectId, uint256 claimId, uint256 _co2Reductions, string _referenceDocument);\n    function auditClaim(uint claimId, string memory auditedReport) public onlyAuditor returns (bool) {\n        address auditor;\n        address[] memory auditors = greenNFTData.getAuditors();\n        for (uint i=0; i < auditors.length; i++) {\n            if (msg.sender == greenNFTData.getAuditor(i)) {\n                auditor = greenNFTData.getAuditor(i);\n            }\n        }\n        require (msg.sender == auditor, \"Caller must be an auditor\");\n\n        GreenNFTData.Claim memory claim = greenNFTData.getClaim(claimId);\n        uint _projectId = claim.projectId;\n        uint _co2Reductions = claim.co2Reductions;\n        string memory _referenceDocument = claim.referenceDocument;\n        emit ClaimAudited(_projectId, claimId, _co2Reductions, _referenceDocument);\n\n        /// Create a new GreenNFT\n        _createNewGreenNFT(_projectId, claimId, _co2Reductions, auditedReport);\n\n        return true;\n    }\n\n     /**\n     * @notice - Create a new GreenNFT\n     */\n\n event GreenNFTCreated(uint256 projectId, uint256 claimId, GreenNFT greenNFT, uint256 carbonCredits);\n\n    function _createNewGreenNFT(\n        uint256 projectId, \n        uint256 claimId,\n        uint256 co2Reductions,\n        string memory auditedReport\n    ) internal returns (bool) {\n        GreenNFTData.Project memory project = greenNFTData.getProject(projectId);\n        address _projectOwner = project.projectOwner;\n        string memory _projectName = project.projectName;\n        string memory projectSymbol = \"GREEN_NFT\";            // [Note]: All NFT's symbol are common symbol\n        string memory tokenURI = getTokenURI(auditedReport);  // [Note]: IPFS hash + URL\n\n        GreenNFT greenNFT = new GreenNFT(_projectOwner, _projectName, projectSymbol, tokenURI);\n\n        // Calculate carbon credits\n        uint256 carbonCredits = co2Reductions;\n\n        emit GreenNFTCreated(projectId, claimId, greenNFT, carbonCredits);\n\n        /// The AllGreenCoins that is equal amount to given-carbonCredits are transferred into the wallet of project owner\n        /// [Note]: This contract should has some the AllGreenCoins balance. \n        allGreenCoin.transfer(_projectOwner, carbonCredits); \n\n        return true;       \n    }\n\n\n     ///-----------------\n    /// Getter methods\n    ///-----------------\n    function baseTokenURI() public pure returns (string memory) {\n        return \"https://ipfs.io/ipfs/\";\n    }\n\n    function getTokenURI(string memory _auditedReport) public view returns (string memory) {\n        return Strings.strConcat(baseTokenURI(), _auditedReport);  /// IPFS hash of audited-report + base token URI\n    }\n\n}",
  "sourcePath": "/home/tswisse/Documents/surfacelargepro/newfull/contrat/contracts/GreenNFTFactory2.sol",
  "compiler": {
    "name": "solc",
    "version": "0.8.19+commit.7dd6d404.Emscripten.clang"
  },
  "schemaVersion": "3.4.15",
  "updatedAt": "2023-11-08T12:38:47.312Z",
  "devdoc": {
    "kind": "dev",
    "methods": {
      "owner()": {
        "details": "Returns the address of the current owner."
      },
      "renounceOwnership()": {
        "details": "Leaves the contract without owner. It will not be possible to call `onlyOwner` functions. Can only be called by the current owner. NOTE: Renouncing ownership will leave the contract without an owner, thereby disabling any functionality that is only available to the owner."
      },
      "transferOwnership(address)": {
        "details": "Transfers ownership of the contract to a new account (`newOwner`). Can only be called by the current owner."
      }
    },
    "version": 1
  },
  "userdoc": {
    "events": {
      "GreenNFTCreated(uint256,uint256,address,uint256)": {
        "notice": "- Create a new GreenNFT"
      }
    },
    "kind": "user",
    "methods": {
      "baseTokenURI()": {
        "notice": "----------------- Getter methods -----------------"
      }
    },
    "version": 1
  }
}