{
  "contractName": "GreenNFTTradable",
  "abi": [
    {
      "inputs": [
        {
          "internalType": "contract AllGreenCoin",
          "name": "_allGreenCoin",
          "type": "address"
        }
      ],
      "stateMutability": "nonpayable",
      "type": "constructor"
    },
    {
      "inputs": [
        {
          "internalType": "contract GreenNFTData",
          "name": "_greenNFTData",
          "type": "address"
        },
        {
          "internalType": "contract GreenNFT",
          "name": "greenNFT",
          "type": "address"
        }
      ],
      "name": "openToPutOnSale",
      "outputs": [],
      "stateMutability": "nonpayable",
      "type": "function"
    },
    {
      "inputs": [
        {
          "internalType": "contract GreenNFTData",
          "name": "_greenNFTData",
          "type": "address"
        },
        {
          "internalType": "contract GreenNFT",
          "name": "greenNFT",
          "type": "address"
        }
      ],
      "name": "cancelToPutOnSale",
      "outputs": [],
      "stateMutability": "nonpayable",
      "type": "function"
    }
  ],
  "bytecode": "0x608060405234801561001057600080fd5b506040516109aa3803806109aa833981810160405281019061003291906100ed565b806000806101000a81548173ffffffffffffffffffffffffffffffffffffffff021916908373ffffffffffffffffffffffffffffffffffffffff1602179055505061011a565b600080fd5b600073ffffffffffffffffffffffffffffffffffffffff82169050919050565b60006100a88261007d565b9050919050565b60006100ba8261009d565b9050919050565b6100ca816100af565b81146100d557600080fd5b50565b6000815190506100e7816100c1565b92915050565b60006020828403121561010357610102610078565b5b6000610111848285016100d8565b91505092915050565b610881806101296000396000f3fe608060405234801561001057600080fd5b50600436106100365760003560e01c80630525530a1461003b5780638b21266114610057575b600080fd5b610055600480360381019061005091906104a2565b610073565b005b610071600480360381019061006c91906104a2565b61022b565b005b60008290508073ffffffffffffffffffffffffffffffffffffffff166344c5bbf88360026040518363ffffffff1660e01b81526004016100b49291906105b8565b6020604051808303816000875af11580156100d3573d6000803e3d6000fd5b505050506040513d601f19601f820116820180604052508101906100f79190610619565b5060008173ffffffffffffffffffffffffffffffffffffffff16633fbd34c9846040518263ffffffff1660e01b81526004016101339190610646565b608060405180830381865afa158015610150573d6000803e3d6000fd5b505050506040513d601f19601f8201168201806040525081019061017491906107a0565b9050600081604001519050600033905060008054906101000a900473ffffffffffffffffffffffffffffffffffffffff1673ffffffffffffffffffffffffffffffffffffffff1663a9059cbb82846040518363ffffffff1660e01b81526004016101df9291906107eb565b6020604051808303816000875af11580156101fe573d6000803e3d6000fd5b505050506040513d601f19601f820116820180604052508101906102229190610619565b50505050505050565b60008290508073ffffffffffffffffffffffffffffffffffffffff166344c5bbf88360016040518363ffffffff1660e01b815260040161026c9291906105b8565b6020604051808303816000875af115801561028b573d6000803e3d6000fd5b505050506040513d601f19601f820116820180604052508101906102af9190610619565b5060008173ffffffffffffffffffffffffffffffffffffffff16633fbd34c9846040518263ffffffff1660e01b81526004016102eb9190610646565b608060405180830381865afa158015610308573d6000803e3d6000fd5b505050506040513d601f19601f8201168201806040525081019061032c91906107a0565b9050600081604001519050600033905060008054906101000a900473ffffffffffffffffffffffffffffffffffffffff1673ffffffffffffffffffffffffffffffffffffffff166323b872dd8230856040518463ffffffff1660e01b815260040161039993929190610814565b6020604051808303816000875af11580156103b8573d6000803e3d6000fd5b505050506040513d601f19601f820116820180604052508101906103dc9190610619565b50505050505050565b6000604051905090565b600080fd5b600073ffffffffffffffffffffffffffffffffffffffff82169050919050565b600061041f826103f4565b9050919050565b600061043182610414565b9050919050565b61044181610426565b811461044c57600080fd5b50565b60008135905061045e81610438565b92915050565b600061046f82610414565b9050919050565b61047f81610464565b811461048a57600080fd5b50565b60008135905061049c81610476565b92915050565b600080604083850312156104b9576104b86103ef565b5b60006104c78582860161044f565b92505060206104d88582860161048d565b9150509250929050565b6000819050919050565b60006105076105026104fd846103f4565b6104e2565b6103f4565b9050919050565b6000610519826104ec565b9050919050565b600061052b8261050e565b9050919050565b61053b81610520565b82525050565b7f4e487b7100000000000000000000000000000000000000000000000000000000600052602160045260246000fd5b6003811061058157610580610541565b5b50565b600081905061059282610570565b919050565b60006105a282610584565b9050919050565b6105b281610597565b82525050565b60006040820190506105cd6000830185610532565b6105da60208301846105a9565b9392505050565b60008115159050919050565b6105f6816105e1565b811461060157600080fd5b50565b600081519050610613816105ed565b92915050565b60006020828403121561062f5761062e6103ef565b5b600061063d84828501610604565b91505092915050565b600060208201905061065b6000830184610532565b92915050565b600080fd5b6000601f19601f8301169050919050565b7f4e487b7100000000000000000000000000000000000000000000000000000000600052604160045260246000fd5b6106af82610666565b810181811067ffffffffffffffff821117156106ce576106cd610677565b5b80604052505050565b60006106e16103e5565b90506106ed82826106a6565b919050565b6000819050919050565b610705816106f2565b811461071057600080fd5b50565b600081519050610722816106fc565b92915050565b60006080828403121561073e5761073d610661565b5b61074860806106d7565b9050600061075884828501610713565b600083015250602061076c84828501610713565b602083015250604061078084828501610713565b604083015250606061079484828501610713565b60608301525092915050565b6000608082840312156107b6576107b56103ef565b5b60006107c484828501610728565b91505092915050565b6107d681610414565b82525050565b6107e5816106f2565b82525050565b600060408201905061080060008301856107cd565b61080d60208301846107dc565b9392505050565b600060608201905061082960008301866107cd565b61083660208301856107cd565b61084360408301846107dc565b94935050505056fea26469706673582212208aefa2ec8c4a1af1fa57e4a10861181287c5c4539398ebf57ecc0822710a446264736f6c63430008130033",
  "immutableReferences": {},
  "source": "// SPDX-License-Identifier: MIT\n\npragma solidity ^0.8.0;\n\npragma experimental ABIEncoderV2;\n\nimport { GreenNFT } from \"./GreenNFT.sol\";\nimport { GreenNFTData } from \"./GreenNFTData.sol\";\nimport { AllGreenCoin } from \"./AllGreenCoin.sol\";\n\n/// [Note]: For calling enum\nimport { GreenNFTDataCommons } from \"./commons/GreenNFTDataCommons.sol\";\n\n\n/**\n * @title - GreenNFTTradable contract\n * @notice - This contract has role that switch open/cancel to put on sale of carbon credits\n */\ncontract GreenNFTTradable {\n    AllGreenCoin private allGreenCoin;  /// [Note]: The reason why I use \"private\" is to avoid an error of \"Overriding public state variable\"\n\n    constructor(AllGreenCoin _allGreenCoin) {\n        allGreenCoin = _allGreenCoin;        \n    }\n\n    /**\n     * @notice - Open to put on sale of carbon credits.\n     * @notice - Caller is a projectOwner (Seller)\n     */\n    function openToPutOnSale(GreenNFTData _greenNFTData, GreenNFT greenNFT) public {\n        GreenNFTData greenNFTData = _greenNFTData;\n        \n        /// Update status\n        greenNFTData.updateStatus(greenNFT, GreenNFTDataCommons.GreenNFTStatus.Sale);\n\n        /// Get amount of carbon credits\n        GreenNFTDataCommons.GreenNFTEmissonData memory greenNFTEmissonData = greenNFTData.getGreenNFTEmissonDataByNFTAddress(greenNFT);\n        uint _carbonCredits = greenNFTEmissonData.carbonCredits;\n\n        /// AllGreenCoins are locked on this smart contract\n        address projectOwner = msg.sender;\n        allGreenCoin.transferFrom(projectOwner, address(this), _carbonCredits);\n    }\n\n    /**\n     * @notice - Cancel to put on sale of carbon credits.\n     * @notice - Caller is a seller\n     */\n    function cancelToPutOnSale(GreenNFTData _greenNFTData, GreenNFT greenNFT) public {\n        GreenNFTData greenNFTData = _greenNFTData;\n\n        /// Update status\n        greenNFTData.updateStatus(greenNFT, GreenNFTDataCommons.GreenNFTStatus.NotSale);\n\n        /// Get amount of carbon credits\n        GreenNFTDataCommons.GreenNFTEmissonData memory greenNFTEmissonData = greenNFTData.getGreenNFTEmissonDataByNFTAddress(greenNFT);\n        uint _carbonCredits = greenNFTEmissonData.carbonCredits;\n\n        /// AllGreenCoins locked are relesed from this smart contract and transferred into a projectOwner (seller) \n        address projectOwner = msg.sender;\n        allGreenCoin.transfer(projectOwner, _carbonCredits);\n    }\n\n}\n",
  "sourcePath": "/home/tswisse/Documents/surfacelargepro/newfull/contrat/contracts/GreenNFTTradable.sol",
  "compiler": {
    "name": "solc",
    "version": "0.8.19+commit.7dd6d404.Emscripten.clang"
  },
  "schemaVersion": "3.4.15",
  "updatedAt": "2023-11-08T12:38:47.368Z",
  "devdoc": {
    "kind": "dev",
    "methods": {},
    "title": "- GreenNFTTradable contract",
    "version": 1
  },
  "userdoc": {
    "kind": "user",
    "methods": {
      "cancelToPutOnSale(address,address)": {
        "notice": "- Cancel to put on sale of carbon credits.- Caller is a seller"
      },
      "constructor": {
        "notice": "[Note]: The reason why I use \"private\" is to avoid an error of \"Overriding public state variable\""
      },
      "openToPutOnSale(address,address)": {
        "notice": "- Open to put on sale of carbon credits.- Caller is a projectOwner (Seller)"
      }
    },
    "notice": "- This contract has role that switch open/cancel to put on sale of carbon credits",
    "version": 1
  }
}